{
    "contractName": "Minting",
    "abi": [
        {
            "inputs": [
                {
                    "internalType": "address",
                    "name": "token",
                    "type": "address"
                }
            ],
            "name": "getTokenExpiryInfo",
            "outputs": [
                {
                    "internalType": "int256",
                    "name": "responseCode",
                    "type": "int256"
                },
                {
                    "components": [
                        {
                            "internalType": "uint32",
                            "name": "second",
                            "type": "uint32"
                        },
                        {
                            "internalType": "address",
                            "name": "autoRenewAccount",
                            "type": "address"
                        },
                        {
                            "internalType": "uint32",
                            "name": "autoRenewPeriod",
                            "type": "uint32"
                        }
                    ],
                    "internalType": "struct IHederaTokenService.Expiry",
                    "name": "expiryInfo",
                    "type": "tuple"
                }
            ],
            "stateMutability": "nonpayable",
            "type": "function"
        },
        {
            "inputs": [
                {
                    "internalType": "address",
                    "name": "token",
                    "type": "address"
                },
                {
                    "internalType": "address",
                    "name": "account",
                    "type": "address"
                }
            ],
            "name": "grantTokenKyc",
            "outputs": [
                {
                    "internalType": "int64",
                    "name": "responseCode",
                    "type": "int64"
                }
            ],
            "stateMutability": "nonpayable",
            "type": "function"
        },
        {
            "inputs": [
                {
                    "internalType": "address",
                    "name": "token",
                    "type": "address"
                },
                {
                    "internalType": "address",
                    "name": "account",
                    "type": "address"
                }
            ],
            "name": "isKyc",
            "outputs": [
                {
                    "internalType": "int64",
                    "name": "responseCode",
                    "type": "int64"
                },
                {
                    "internalType": "bool",
                    "name": "kycGranted",
                    "type": "bool"
                }
            ],
            "stateMutability": "nonpayable",
            "type": "function"
        },
        {
            "inputs": [
                {
                    "internalType": "address",
                    "name": "token",
                    "type": "address"
                }
            ],
            "name": "pauseToken",
            "outputs": [
                {
                    "internalType": "int256",
                    "name": "responseCode",
                    "type": "int256"
                }
            ],
            "stateMutability": "nonpayable",
            "type": "function"
        },
        {
            "inputs": [
                {
                    "internalType": "address",
                    "name": "token",
                    "type": "address"
                },
                {
                    "internalType": "address",
                    "name": "account",
                    "type": "address"
                }
            ],
            "name": "revokeTokenKyc",
            "outputs": [
                {
                    "internalType": "int64",
                    "name": "responseCode",
                    "type": "int64"
                }
            ],
            "stateMutability": "nonpayable",
            "type": "function"
        },
        {
            "inputs": [
                {
                    "internalType": "address",
                    "name": "token",
                    "type": "address"
                }
            ],
            "name": "unpauseToken",
            "outputs": [
                {
                    "internalType": "int256",
                    "name": "responseCode",
                    "type": "int256"
                }
            ],
            "stateMutability": "nonpayable",
            "type": "function"
        },
        {
            "inputs": [
                {
                    "internalType": "address",
                    "name": "token",
                    "type": "address"
                },
                {
                    "components": [
                        {
                            "internalType": "uint32",
                            "name": "second",
                            "type": "uint32"
                        },
                        {
                            "internalType": "address",
                            "name": "autoRenewAccount",
                            "type": "address"
                        },
                        {
                            "internalType": "uint32",
                            "name": "autoRenewPeriod",
                            "type": "uint32"
                        }
                    ],
                    "internalType": "struct IHederaTokenService.Expiry",
                    "name": "expiryInfo",
                    "type": "tuple"
                }
            ],
            "name": "updateTokenExpiryInfo",
            "outputs": [
                {
                    "internalType": "int256",
                    "name": "responseCode",
                    "type": "int256"
                }
            ],
            "stateMutability": "nonpayable",
            "type": "function"
        },
        {
            "inputs": [
                {
                    "internalType": "address",
                    "name": "token",
                    "type": "address"
                },
                {
                    "components": [
                        {
                            "internalType": "string",
                            "name": "name",
                            "type": "string"
                        },
                        {
                            "internalType": "string",
                            "name": "symbol",
                            "type": "string"
                        },
                        {
                            "internalType": "address",
                            "name": "treasury",
                            "type": "address"
                        },
                        {
                            "internalType": "string",
                            "name": "memo",
                            "type": "string"
                        },
                        {
                            "internalType": "bool",
                            "name": "tokenSupplyType",
                            "type": "bool"
                        },
                        {
                            "internalType": "int64",
                            "name": "maxSupply",
                            "type": "int64"
                        },
                        {
                            "internalType": "bool",
                            "name": "freezeDefault",
                            "type": "bool"
                        },
                        {
                            "components": [
                                {
                                    "internalType": "uint256",
                                    "name": "keyType",
                                    "type": "uint256"
                                },
                                {
                                    "components": [
                                        {
                                            "internalType": "bool",
                                            "name": "inheritAccountKey",
                                            "type": "bool"
                                        },
                                        {
                                            "internalType": "address",
                                            "name": "contractId",
                                            "type": "address"
                                        },
                                        {
                                            "internalType": "bytes",
                                            "name": "ed25519",
                                            "type": "bytes"
                                        },
                                        {
                                            "internalType": "bytes",
                                            "name": "ECDSA_secp256k1",
                                            "type": "bytes"
                                        },
                                        {
                                            "internalType": "address",
                                            "name": "delegatableContractId",
                                            "type": "address"
                                        }
                                    ],
                                    "internalType": "struct IHederaTokenService.KeyValue",
                                    "name": "key",
                                    "type": "tuple"
                                }
                            ],
                            "internalType": "struct IHederaTokenService.TokenKey[]",
                            "name": "tokenKeys",
                            "type": "tuple[]"
                        },
                        {
                            "components": [
                                {
                                    "internalType": "uint32",
                                    "name": "second",
                                    "type": "uint32"
                                },
                                {
                                    "internalType": "address",
                                    "name": "autoRenewAccount",
                                    "type": "address"
                                },
                                {
                                    "internalType": "uint32",
                                    "name": "autoRenewPeriod",
                                    "type": "uint32"
                                }
                            ],
                            "internalType": "struct IHederaTokenService.Expiry",
                            "name": "expiry",
                            "type": "tuple"
                        }
                    ],
                    "internalType": "struct IHederaTokenService.HederaToken",
                    "name": "tokenInfo",
                    "type": "tuple"
                }
            ],
            "name": "updateTokenInfo",
            "outputs": [
                {
                    "internalType": "int256",
                    "name": "responseCode",
                    "type": "int256"
                }
            ],
            "stateMutability": "nonpayable",
            "type": "function"
        },
        {
            "inputs": [
                {
                    "internalType": "string",
                    "name": "name",
                    "type": "string"
                },
                {
                    "internalType": "string",
                    "name": "symbol",
                    "type": "string"
                },
                {
                    "internalType": "int64",
                    "name": "maxSupply",
                    "type": "int64"
                },
                {
                    "internalType": "uint32",
                    "name": "autoRenewPeriod",
                    "type": "uint32"
                },
                {
                    "components": [
                        {
                            "internalType": "uint32",
                            "name": "numerator",
                            "type": "uint32"
                        },
                        {
                            "internalType": "uint32",
                            "name": "denominator",
                            "type": "uint32"
                        },
                        {
                            "internalType": "address",
                            "name": "feeCollector",
                            "type": "address"
                        }
                    ],
                    "internalType": "struct RoyaltyFeeData[]",
                    "name": "royaltyFeesData",
                    "type": "tuple[]"
                }
            ],
            "name": "createNft",
            "outputs": [
                {
                    "internalType": "address",
                    "name": "",
                    "type": "address"
                }
            ],
            "stateMutability": "payable",
            "type": "function"
        },
        {
            "inputs": [
                {
                    "internalType": "address",
                    "name": "token",
                    "type": "address"
                },
                {
                    "internalType": "bytes[]",
                    "name": "metadata",
                    "type": "bytes[]"
                }
            ],
            "name": "mintNft",
            "outputs": [
                {
                    "internalType": "int64",
                    "name": "",
                    "type": "int64"
                }
            ],
            "stateMutability": "nonpayable",
            "type": "function"
        },
        {
            "inputs": [
                {
                    "internalType": "address",
                    "name": "token",
                    "type": "address"
                },
                {
                    "internalType": "bytes[]",
                    "name": "metadataList",
                    "type": "bytes[]"
                }
            ],
            "name": "mintMultipleNfts",
            "outputs": [
                {
                    "internalType": "int64[]",
                    "name": "",
                    "type": "int64[]"
                }
            ],
            "stateMutability": "nonpayable",
            "type": "function"
        },
        {
            "inputs": [
                {
                    "internalType": "string",
                    "name": "name",
                    "type": "string"
                },
                {
                    "internalType": "string",
                    "name": "symbol",
                    "type": "string"
                },
                {
                    "internalType": "int64",
                    "name": "maxSupply",
                    "type": "int64"
                },
                {
                    "internalType": "uint32",
                    "name": "autoRenewPeriod",
                    "type": "uint32"
                },
                {
                    "internalType": "bytes[]",
                    "name": "metadataList",
                    "type": "bytes[]"
                },
                {
                    "components": [
                        {
                            "internalType": "uint32",
                            "name": "numerator",
                            "type": "uint32"
                        },
                        {
                            "internalType": "uint32",
                            "name": "denominator",
                            "type": "uint32"
                        },
                        {
                            "internalType": "address",
                            "name": "feeCollector",
                            "type": "address"
                        }
                    ],
                    "internalType": "struct RoyaltyFeeData[]",
                    "name": "royaltyFees",
                    "type": "tuple[]"
                }
            ],
            "name": "createTokenAndMintMultipleNfts",
            "outputs": [
                {
                    "internalType": "address",
                    "name": "tokenId",
                    "type": "address"
                }
            ],
            "stateMutability": "payable",
            "type": "function"
        }
    ],
    "bytecode": "0x60806040523480156200001157600080fd5b5060018060008060068111156200002d576200002c620001f1565b5b6006811115620000425762000041620001f1565b5b81526020019081526020016000208190555060026001600060016006811115620000715762000070620001f1565b5b6006811115620000865762000085620001f1565b5b81526020019081526020016000208190555060046001600060026006811115620000b557620000b4620001f1565b5b6006811115620000ca57620000c9620001f1565b5b81526020019081526020016000208190555060086001600060036006811115620000f957620000f8620001f1565b5b60068111156200010e576200010d620001f1565b5b815260200190815260200160002081905550601060016000600460068111156200013d576200013c620001f1565b5b6006811115620001525762000151620001f1565b5b81526020019081526020016000208190555060206001600060056006811115620001815762000180620001f1565b5b6006811115620001965762000195620001f1565b5b815260200190815260200160002081905550604060016000600680811115620001c457620001c3620001f1565b5b6006811115620001d957620001d8620001f1565b5b81526020019081526020016000208190555062000220565b7f4e487b7100000000000000000000000000000000000000000000000000000000600052602160045260246000fd5b6134b180620002306000396000f3fe6080604052600436106100a75760003560e01c80637c41ad2c116100645780637c41ad2c1461020d5780638507c5211461024a5780638f8d7f991461027a578063af99c633146102b7578063d614cdb8146102f4578063f2c31ff414610332576100a7565b80630a284cb6146100ac57806318370d34146100e95780631fbed3bb146101265780633b3bff0f14610163578063593d6e82146101a05780635d77e96c146101dd575b600080fd5b3480156100b857600080fd5b506100d360048036038101906100ce9190611ae8565b610370565b6040516100e09190611b60565b60405180910390f35b3480156100f557600080fd5b50610110600480360381019061010b91906120c1565b6103f2565b60405161011d9190612136565b60405180910390f35b34801561013257600080fd5b5061014d60048036038101906101489190611ae8565b61050a565b60405161015a919061220f565b60405180910390f35b34801561016f57600080fd5b5061018a60048036038101906101859190612231565b610641565b6040516101979190612136565b60405180910390f35b3480156101ac57600080fd5b506101c760048036038101906101c2919061225e565b610756565b6040516101d49190612136565b60405180910390f35b6101f760048036038101906101f291906123c5565b61086e565b60405161020491906124d1565b60405180910390f35b34801561021957600080fd5b50610234600480360381019061022f9190612231565b610894565b6040516102419190612136565b60405180910390f35b610264600480360381019061025f91906124ec565b6109a9565b60405161027191906124d1565b60405180910390f35b34801561028657600080fd5b506102a1600480360381019061029c91906125bb565b610d12565b6040516102ae9190611b60565b60405180910390f35b3480156102c357600080fd5b506102de60048036038101906102d991906125bb565b610e2a565b6040516102eb9190611b60565b60405180910390f35b34801561030057600080fd5b5061031b60048036038101906103169190612231565b610f42565b60405161032992919061265b565b60405180910390f35b34801561033e57600080fd5b50610359600480360381019061035491906125bb565b611072565b604051610367929190612693565b60405180910390f35b600080600061038185600086611197565b9250509150601660030b82146103cc576040517f08c379a00000000000000000000000000000000000000000000000000000000081526004016103c39061273f565b60405180910390fd5b806000815181106103e0576103df61275f565b5b60200260200101519250505092915050565b600080600061016773ffffffffffffffffffffffffffffffffffffffff166318370d3460e01b868660405160240161042b929190612b18565b604051602081830303815290604052907bffffffffffffffffffffffffffffffffffffffffffffffffffffffff19166020820180517bffffffffffffffffffffffffffffffffffffffffffffffffffffffff83818316178352505050506040516104959190612b84565b6000604051808303816000865af19150503d80600081146104d2576040519150601f19603f3d011682016040523d82523d6000602084013e6104d7565b606091505b5091509150816104e85760156104fd565b808060200190518101906104fc9190612bd4565b5b60030b9250505092915050565b60606000825167ffffffffffffffff811115610529576105286118d2565b5b6040519080825280602002602001820160405280156105575781602001602082028036833780820191505090505b5090506000600167ffffffffffffffff811115610577576105766118d2565b5b6040519080825280602002602001820160405280156105aa57816020015b60608152602001906001900390816105955790505b50905060005b8451811015610635578481815181106105cc576105cb61275f565b5b6020026020010151826000815181106105e8576105e761275f565b5b60200260200101819052506105fd8683610370565b8382815181106106105761060f61275f565b5b602002602001019060070b908160070b815250508061062e90612c30565b90506105b0565b50819250505092915050565b600080600061016773ffffffffffffffffffffffffffffffffffffffff16633b3bff0f60e01b8560405160240161067891906124d1565b604051602081830303815290604052907bffffffffffffffffffffffffffffffffffffffffffffffffffffffff19166020820180517bffffffffffffffffffffffffffffffffffffffffffffffffffffffff83818316178352505050506040516106e29190612b84565b6000604051808303816000865af19150503d806000811461071f576040519150601f19603f3d011682016040523d82523d6000602084013e610724565b606091505b50915091508161073557601561074a565b808060200190518101906107499190612bd4565b5b60030b92505050919050565b600080600061016773ffffffffffffffffffffffffffffffffffffffff1663593d6e8260e01b868660405160240161078f929190612c78565b604051602081830303815290604052907bffffffffffffffffffffffffffffffffffffffffffffffffffffffff19166020820180517bffffffffffffffffffffffffffffffffffffffffffffffffffffffff83818316178352505050506040516107f99190612b84565b6000604051808303816000865af19150503d8060008114610836576040519150601f19603f3d011682016040523d82523d6000602084013e61083b565b606091505b50915091508161084c576015610861565b808060200190518101906108609190612bd4565b5b60030b9250505092915050565b600061087d87878787866109a9565b9050610889818461050a565b509695505050505050565b600080600061016773ffffffffffffffffffffffffffffffffffffffff16637c41ad2c60e01b856040516024016108cb91906124d1565b604051602081830303815290604052907bffffffffffffffffffffffffffffffffffffffffffffffffffffffff19166020820180517bffffffffffffffffffffffffffffffffffffffffffffffffffffffff83818316178352505050506040516109359190612b84565b6000604051808303816000865af19150503d8060008114610972576040519150601f19603f3d011682016040523d82523d6000602084013e610977565b606091505b50915091508161098857601561099d565b8080602001905181019061099c9190612bd4565b5b60030b92505050919050565b600080600167ffffffffffffffff8111156109c7576109c66118d2565b5b604051908082528060200260200182016040528015610a0057816020015b6109ed611640565b8152602001906001900390816109e55790505b509050610a10600460013061130f565b81600081518110610a2457610a2361275f565b5b6020026020010181905250610a37611660565b87816000018190525086816020018190525033816040019073ffffffffffffffffffffffffffffffffffffffff16908173ffffffffffffffffffffffffffffffffffffffff16815250506001816080019015159081151581525050858160a0019060070b908160070b81525050818160e0018190525060008160c0019015159081151581525050610ac83386611346565b8161010001819052506000845167ffffffffffffffff811115610aee57610aed6118d2565b5b604051908082528060200260200182016040528015610b2757816020015b610b146116cf565b815260200190600190039081610b0c5790505b50905060005b85518163ffffffff161015610c4f57610b446116cf565b868263ffffffff1681518110610b5d57610b5c61275f565b5b602002602001015160000151816000019063ffffffff16908163ffffffff1681525050868263ffffffff1681518110610b9957610b9861275f565b5b602002602001015160200151816020019063ffffffff16908163ffffffff1681525050868263ffffffff1681518110610bd557610bd461275f565b5b6020026020010151604001518160a0019073ffffffffffffffffffffffffffffffffffffffff16908173ffffffffffffffffffffffffffffffffffffffff168152505080838363ffffffff1681518110610c3257610c3161275f565b5b60200260200101819052505080610c4890612ca1565b9050610b2d565b5060008067ffffffffffffffff811115610c6c57610c6b6118d2565b5b604051908082528060200260200182016040528015610ca557816020015b610c92611745565b815260200190600190039081610c8a5790505b509050600080610cb68584866113a4565b91509150601660030b8214610d00576040517f08c379a0000000000000000000000000000000000000000000000000000000008152600401610cf790612d3f565b60405180910390fd5b80965050505050505095945050505050565b600080600061016773ffffffffffffffffffffffffffffffffffffffff16638f8d7f9960e01b8686604051602401610d4b929190612d5f565b604051602081830303815290604052907bffffffffffffffffffffffffffffffffffffffffffffffffffffffff19166020820180517bffffffffffffffffffffffffffffffffffffffffffffffffffffffff8381831617835250505050604051610db59190612b84565b6000604051808303816000865af19150503d8060008114610df2576040519150601f19603f3d011682016040523d82523d6000602084013e610df7565b606091505b509150915081610e08576015610e1d565b80806020019051810190610e1c9190612bd4565b5b60030b9250505092915050565b600080600061016773ffffffffffffffffffffffffffffffffffffffff1663af99c63360e01b8686604051602401610e63929190612d5f565b604051602081830303815290604052907bffffffffffffffffffffffffffffffffffffffffffffffffffffffff19166020820180517bffffffffffffffffffffffffffffffffffffffffffffffffffffffff8381831617835250505050604051610ecd9190612b84565b6000604051808303816000865af19150503d8060008114610f0a576040519150601f19603f3d011682016040523d82523d6000602084013e610f0f565b606091505b509150915081610f20576015610f35565b80806020019051810190610f349190612bd4565b5b60030b9250505092915050565b6000610f4c6117aa565b60008061016773ffffffffffffffffffffffffffffffffffffffff1663d614cdb860e01b86604051602401610f8191906124d1565b604051602081830303815290604052907bffffffffffffffffffffffffffffffffffffffffffffffffffffffff19166020820180517bffffffffffffffffffffffffffffffffffffffffffffffffffffffff8381831617835250505050604051610feb9190612b84565b6000604051808303816000865af19150503d8060008114611028576040519150601f19603f3d011682016040523d82523d6000602084013e61102d565b606091505b509150915061103a6117aa565b826110475760158161105c565b8180602001905181019061105b9190612e16565b5b8160030b91508095508196505050505050915091565b60008060008061016773ffffffffffffffffffffffffffffffffffffffff1663f2c31ff460e01b87876040516024016110ac929190612d5f565b604051602081830303815290604052907bffffffffffffffffffffffffffffffffffffffffffffffffffffffff19166020820180517bffffffffffffffffffffffffffffffffffffffffffffffffffffffff83818316178352505050506040516111169190612b84565b6000604051808303816000865af19150503d8060008114611153576040519150601f19603f3d011682016040523d82523d6000602084013e611158565b606091505b50915091508161116b5760156000611180565b8080602001905181019061117f9190612e6b565b5b8160030b9150809450819550505050509250929050565b600080606060008061016773ffffffffffffffffffffffffffffffffffffffff1663278e0b8860e01b8989896040516024016111d593929190612f90565b604051602081830303815290604052907bffffffffffffffffffffffffffffffffffffffffffffffffffffffff19166020820180517bffffffffffffffffffffffffffffffffffffffffffffffffffffffff838183161783525050505060405161123f9190612b84565b6000604051808303816000865af19150503d806000811461127c576040519150601f19603f3d011682016040523d82523d6000602084013e611281565b606091505b5091509150816112dd57601560008067ffffffffffffffff8111156112a9576112a86118d2565b5b6040519080825280602002602001820160405280156112d75781602001602082028036833780820191505090505b506112f2565b808060200190518101906112f191906130d2565b5b8260030b9250809550819650829750505050505093509350939050565b611317611640565b604051806040016040528061132b86611523565b815260200161133a8585611564565b81525090509392505050565b61134e6117aa565b82816020019073ffffffffffffffffffffffffffffffffffffffff16908173ffffffffffffffffffffffffffffffffffffffff168152505081816040019063ffffffff16908163ffffffff168152505092915050565b6000808460008161010001516000015163ffffffff161480156113d6575060008161010001516040015163ffffffff16145b156113fc576276a7008161010001516040019063ffffffff16908163ffffffff16815250505b60008061016773ffffffffffffffffffffffffffffffffffffffff1634634573396960e01b8a8a8a60405160240161143693929190613382565b604051602081830303815290604052907bffffffffffffffffffffffffffffffffffffffffffffffffffffffff19166020820180517bffffffffffffffffffffffffffffffffffffffffffffffffffffffff83818316178352505050506040516114a09190612b84565b60006040518083038185875af1925050503d80600081146114dd576040519150601f19603f3d011682016040523d82523d6000602084013e6114e2565b606091505b5091509150816114f5576015600061150a565b80806020019051810190611509919061340c565b5b8160030b91508095508196505050505050935093915050565b60006001600083600681111561153c5761153b61344c565b5b600681111561154e5761154d61344c565b5b8152602001908152602001600020549050919050565b61156c6117ed565b600160048111156115805761157f61344c565b5b8360048111156115935761159261344c565b5b036115d55781816020019073ffffffffffffffffffffffffffffffffffffffff16908173ffffffffffffffffffffffffffffffffffffffff168152505061163a565b6004808111156115e8576115e761344c565b5b8360048111156115fb576115fa61344c565b5b036116395781816080019073ffffffffffffffffffffffffffffffffffffffff16908173ffffffffffffffffffffffffffffffffffffffff16815250505b5b92915050565b60405180604001604052806000815260200161165a6117ed565b81525090565b6040518061012001604052806060815260200160608152602001600073ffffffffffffffffffffffffffffffffffffffff16815260200160608152602001600015158152602001600060070b8152602001600015158152602001606081526020016116c96117aa565b81525090565b6040518060c00160405280600063ffffffff168152602001600063ffffffff168152602001600063ffffffff168152602001600073ffffffffffffffffffffffffffffffffffffffff168152602001600015158152602001600073ffffffffffffffffffffffffffffffffffffffff1681525090565b6040518060a00160405280600063ffffffff168152602001600073ffffffffffffffffffffffffffffffffffffffff168152602001600015158152602001600015158152602001600073ffffffffffffffffffffffffffffffffffffffff1681525090565b6040518060600160405280600063ffffffff168152602001600073ffffffffffffffffffffffffffffffffffffffff168152602001600063ffffffff1681525090565b6040518060a00160405280600015158152602001600073ffffffffffffffffffffffffffffffffffffffff1681526020016060815260200160608152602001600073ffffffffffffffffffffffffffffffffffffffff1681525090565b6000604051905090565b600080fd5b600080fd5b600073ffffffffffffffffffffffffffffffffffffffff82169050919050565b60006118898261185e565b9050919050565b6118998161187e565b81146118a457600080fd5b50565b6000813590506118b681611890565b92915050565b600080fd5b6000601f19601f8301169050919050565b7f4e487b7100000000000000000000000000000000000000000000000000000000600052604160045260246000fd5b61190a826118c1565b810181811067ffffffffffffffff82111715611929576119286118d2565b5b80604052505050565b600061193c61184a565b90506119488282611901565b919050565b600067ffffffffffffffff821115611968576119676118d2565b5b602082029050602081019050919050565b600080fd5b600080fd5b600067ffffffffffffffff82111561199e5761199d6118d2565b5b6119a7826118c1565b9050602081019050919050565b82818337600083830152505050565b60006119d66119d184611983565b611932565b9050828152602081018484840111156119f2576119f161197e565b5b6119fd8482856119b4565b509392505050565b600082601f830112611a1a57611a196118bc565b5b8135611a2a8482602086016119c3565b91505092915050565b6000611a46611a418461194d565b611932565b90508083825260208201905060208402830185811115611a6957611a68611979565b5b835b81811015611ab057803567ffffffffffffffff811115611a8e57611a8d6118bc565b5b808601611a9b8982611a05565b85526020850194505050602081019050611a6b565b5050509392505050565b600082601f830112611acf57611ace6118bc565b5b8135611adf848260208601611a33565b91505092915050565b60008060408385031215611aff57611afe611854565b5b6000611b0d858286016118a7565b925050602083013567ffffffffffffffff811115611b2e57611b2d611859565b5b611b3a85828601611aba565b9150509250929050565b60008160070b9050919050565b611b5a81611b44565b82525050565b6000602082019050611b756000830184611b51565b92915050565b600080fd5b600080fd5b600067ffffffffffffffff821115611ba057611b9f6118d2565b5b611ba9826118c1565b9050602081019050919050565b6000611bc9611bc484611b85565b611932565b905082815260208101848484011115611be557611be461197e565b5b611bf08482856119b4565b509392505050565b600082601f830112611c0d57611c0c6118bc565b5b8135611c1d848260208601611bb6565b91505092915050565b60008115159050919050565b611c3b81611c26565b8114611c4657600080fd5b50565b600081359050611c5881611c32565b92915050565b611c6781611b44565b8114611c7257600080fd5b50565b600081359050611c8481611c5e565b92915050565b600067ffffffffffffffff821115611ca557611ca46118d2565b5b602082029050602081019050919050565b6000819050919050565b611cc981611cb6565b8114611cd457600080fd5b50565b600081359050611ce681611cc0565b92915050565b600060a08284031215611d0257611d01611b7b565b5b611d0c60a0611932565b90506000611d1c84828501611c49565b6000830152506020611d30848285016118a7565b602083015250604082013567ffffffffffffffff811115611d5457611d53611b80565b5b611d6084828501611a05565b604083015250606082013567ffffffffffffffff811115611d8457611d83611b80565b5b611d9084828501611a05565b6060830152506080611da4848285016118a7565b60808301525092915050565b600060408284031215611dc657611dc5611b7b565b5b611dd06040611932565b90506000611de084828501611cd7565b600083015250602082013567ffffffffffffffff811115611e0457611e03611b80565b5b611e1084828501611cec565b60208301525092915050565b6000611e2f611e2a84611c8a565b611932565b90508083825260208201905060208402830185811115611e5257611e51611979565b5b835b81811015611e9957803567ffffffffffffffff811115611e7757611e766118bc565b5b808601611e848982611db0565b85526020850194505050602081019050611e54565b5050509392505050565b600082601f830112611eb857611eb76118bc565b5b8135611ec8848260208601611e1c565b91505092915050565b600063ffffffff82169050919050565b611eea81611ed1565b8114611ef557600080fd5b50565b600081359050611f0781611ee1565b92915050565b600060608284031215611f2357611f22611b7b565b5b611f2d6060611932565b90506000611f3d84828501611ef8565b6000830152506020611f51848285016118a7565b6020830152506040611f6584828501611ef8565b60408301525092915050565b60006101608284031215611f8857611f87611b7b565b5b611f93610120611932565b9050600082013567ffffffffffffffff811115611fb357611fb2611b80565b5b611fbf84828501611bf8565b600083015250602082013567ffffffffffffffff811115611fe357611fe2611b80565b5b611fef84828501611bf8565b6020830152506040612003848285016118a7565b604083015250606082013567ffffffffffffffff81111561202757612026611b80565b5b61203384828501611bf8565b606083015250608061204784828501611c49565b60808301525060a061205b84828501611c75565b60a08301525060c061206f84828501611c49565b60c08301525060e082013567ffffffffffffffff81111561209357612092611b80565b5b61209f84828501611ea3565b60e0830152506101006120b484828501611f0d565b6101008301525092915050565b600080604083850312156120d8576120d7611854565b5b60006120e6858286016118a7565b925050602083013567ffffffffffffffff81111561210757612106611859565b5b61211385828601611f71565b9150509250929050565b6000819050919050565b6121308161211d565b82525050565b600060208201905061214b6000830184612127565b92915050565b600081519050919050565b600082825260208201905092915050565b6000819050602082019050919050565b61218681611b44565b82525050565b6000612198838361217d565b60208301905092915050565b6000602082019050919050565b60006121bc82612151565b6121c6818561215c565b93506121d18361216d565b8060005b838110156122025781516121e9888261218c565b97506121f4836121a4565b9250506001810190506121d5565b5085935050505092915050565b6000602082019050818103600083015261222981846121b1565b905092915050565b60006020828403121561224757612246611854565b5b6000612255848285016118a7565b91505092915050565b6000806080838503121561227557612274611854565b5b6000612283858286016118a7565b925050602061229485828601611f0d565b9150509250929050565b600067ffffffffffffffff8211156122b9576122b86118d2565b5b602082029050602081019050919050565b6000606082840312156122e0576122df611b7b565b5b6122ea6060611932565b905060006122fa84828501611ef8565b600083015250602061230e84828501611ef8565b6020830152506040612322848285016118a7565b60408301525092915050565b600061234161233c8461229e565b611932565b9050808382526020820190506060840283018581111561236457612363611979565b5b835b8181101561238d578061237988826122ca565b845260208401935050606081019050612366565b5050509392505050565b600082601f8301126123ac576123ab6118bc565b5b81356123bc84826020860161232e565b91505092915050565b60008060008060008060c087890312156123e2576123e1611854565b5b600087013567ffffffffffffffff811115612400576123ff611859565b5b61240c89828a01611bf8565b965050602087013567ffffffffffffffff81111561242d5761242c611859565b5b61243989828a01611bf8565b955050604061244a89828a01611c75565b945050606061245b89828a01611ef8565b935050608087013567ffffffffffffffff81111561247c5761247b611859565b5b61248889828a01611aba565b92505060a087013567ffffffffffffffff8111156124a9576124a8611859565b5b6124b589828a01612397565b9150509295509295509295565b6124cb8161187e565b82525050565b60006020820190506124e660008301846124c2565b92915050565b600080600080600060a0868803121561250857612507611854565b5b600086013567ffffffffffffffff81111561252657612525611859565b5b61253288828901611bf8565b955050602086013567ffffffffffffffff81111561255357612552611859565b5b61255f88828901611bf8565b945050604061257088828901611c75565b935050606061258188828901611ef8565b925050608086013567ffffffffffffffff8111156125a2576125a1611859565b5b6125ae88828901612397565b9150509295509295909350565b600080604083850312156125d2576125d1611854565b5b60006125e0858286016118a7565b92505060206125f1858286016118a7565b9150509250929050565b61260481611ed1565b82525050565b6126138161187e565b82525050565b60608201600082015161262f60008501826125fb565b506020820151612642602085018261260a565b50604082015161265560408501826125fb565b50505050565b60006080820190506126706000830185612127565b61267d6020830184612619565b9392505050565b61268d81611c26565b82525050565b60006040820190506126a86000830185611b51565b6126b56020830184612684565b9392505050565b600082825260208201905092915050565b7f4661696c656420746f206d696e74206e6f6e2d66756e6769626c6520746f6b6560008201527f6e2e000000000000000000000000000000000000000000000000000000000000602082015250565b60006127296022836126bc565b9150612734826126cd565b604082019050919050565b600060208201905081810360008301526127588161271c565b9050919050565b7f4e487b7100000000000000000000000000000000000000000000000000000000600052603260045260246000fd5b600081519050919050565b600082825260208201905092915050565b60005b838110156127c85780820151818401526020810190506127ad565b60008484015250505050565b60006127df8261278e565b6127e98185612799565b93506127f98185602086016127aa565b612802816118c1565b840191505092915050565b61281681611c26565b82525050565b600081519050919050565b600082825260208201905092915050565b6000819050602082019050919050565b61285181611cb6565b82525050565b600081519050919050565b600082825260208201905092915050565b600061287e82612857565b6128888185612862565b93506128988185602086016127aa565b6128a1816118c1565b840191505092915050565b600060a0830160008301516128c4600086018261280d565b5060208301516128d7602086018261260a565b50604083015184820360408601526128ef8282612873565b915050606083015184820360608601526129098282612873565b915050608083015161291e608086018261260a565b508091505092915050565b60006040830160008301516129416000860182612848565b506020830151848203602086015261295982826128ac565b9150508091505092915050565b60006129728383612929565b905092915050565b6000602082019050919050565b60006129928261281c565b61299c8185612827565b9350836020820285016129ae85612838565b8060005b858110156129ea57848403895281516129cb8582612966565b94506129d68361297a565b925060208a019950506001810190506129b2565b50829750879550505050505092915050565b606082016000820151612a1260008501826125fb565b506020820151612a25602085018261260a565b506040820151612a3860408501826125fb565b50505050565b6000610160830160008301518482036000860152612a5c82826127d4565b91505060208301518482036020860152612a7682826127d4565b9150506040830151612a8b604086018261260a565b5060608301518482036060860152612aa382826127d4565b9150506080830151612ab8608086018261280d565b5060a0830151612acb60a086018261217d565b5060c0830151612ade60c086018261280d565b5060e083015184820360e0860152612af68282612987565b915050610100830151612b0d6101008601826129fc565b508091505092915050565b6000604082019050612b2d60008301856124c2565b8181036020830152612b3f8184612a3e565b90509392505050565b600081905092915050565b6000612b5e82612857565b612b688185612b48565b9350612b788185602086016127aa565b80840191505092915050565b6000612b908284612b53565b915081905092915050565b60008160030b9050919050565b612bb181612b9b565b8114612bbc57600080fd5b50565b600081519050612bce81612ba8565b92915050565b600060208284031215612bea57612be9611854565b5b6000612bf884828501612bbf565b91505092915050565b7f4e487b7100000000000000000000000000000000000000000000000000000000600052601160045260246000fd5b6000612c3b82611cb6565b91507fffffffffffffffffffffffffffffffffffffffffffffffffffffffffffffffff8203612c6d57612c6c612c01565b5b600182019050919050565b6000608082019050612c8d60008301856124c2565b612c9a6020830184612619565b9392505050565b6000612cac82611ed1565b915063ffffffff8203612cc257612cc1612c01565b5b600182019050919050565b7f4661696c656420746f20637265617465206e6f6e2d66756e6769626c6520746f60008201527f6b656e2e00000000000000000000000000000000000000000000000000000000602082015250565b6000612d296024836126bc565b9150612d3482612ccd565b604082019050919050565b60006020820190508181036000830152612d5881612d1c565b9050919050565b6000604082019050612d7460008301856124c2565b612d8160208301846124c2565b9392505050565b600081519050612d9781611ee1565b92915050565b600081519050612dac81611890565b92915050565b600060608284031215612dc857612dc7611b7b565b5b612dd26060611932565b90506000612de284828501612d88565b6000830152506020612df684828501612d9d565b6020830152506040612e0a84828501612d88565b60408301525092915050565b60008060808385031215612e2d57612e2c611854565b5b6000612e3b85828601612bbf565b9250506020612e4c85828601612db2565b9150509250929050565b600081519050612e6581611c32565b92915050565b60008060408385031215612e8257612e81611854565b5b6000612e9085828601612bbf565b9250506020612ea185828601612e56565b9150509250929050565b600067ffffffffffffffff82169050919050565b612ec881612eab565b82525050565b600081519050919050565b600082825260208201905092915050565b6000819050602082019050919050565b6000612f068383612873565b905092915050565b6000602082019050919050565b6000612f2682612ece565b612f308185612ed9565b935083602082028501612f4285612eea565b8060005b85811015612f7e5784840389528151612f5f8582612efa565b9450612f6a83612f0e565b925060208a01995050600181019050612f46565b50829750879550505050505092915050565b6000606082019050612fa560008301866124c2565b612fb26020830185612ebf565b8181036040830152612fc48184612f1b565b9050949350505050565b612fd781612eab565b8114612fe257600080fd5b50565b600081519050612ff481612fce565b92915050565b600067ffffffffffffffff821115613015576130146118d2565b5b602082029050602081019050919050565b60008151905061303581611c5e565b92915050565b600061304e61304984612ffa565b611932565b9050808382526020820190506020840283018581111561307157613070611979565b5b835b8181101561309a57806130868882613026565b845260208401935050602081019050613073565b5050509392505050565b600082601f8301126130b9576130b86118bc565b5b81516130c984826020860161303b565b91505092915050565b6000806000606084860312156130eb576130ea611854565b5b60006130f986828701612bbf565b935050602061310a86828701612fe5565b925050604084015167ffffffffffffffff81111561312b5761312a611859565b5b613137868287016130a4565b9150509250925092565b600081519050919050565b600082825260208201905092915050565b6000819050602082019050919050565b60a08201600082015161318360008501826125fb565b506020820151613196602085018261260a565b5060408201516131a9604085018261280d565b5060608201516131bc606085018261280d565b5060808201516131cf608085018261260a565b50505050565b60006131e1838361316d565b60a08301905092915050565b6000602082019050919050565b600061320582613141565b61320f818561314c565b935061321a8361315d565b8060005b8381101561324b57815161323288826131d5565b975061323d836131ed565b92505060018101905061321e565b5085935050505092915050565b600081519050919050565b600082825260208201905092915050565b6000819050602082019050919050565b60c08201600082015161329a60008501826125fb565b5060208201516132ad60208501826125fb565b5060408201516132c060408501826125fb565b5060608201516132d3606085018261260a565b5060808201516132e6608085018261280d565b5060a08201516132f960a085018261260a565b50505050565b600061330b8383613284565b60c08301905092915050565b6000602082019050919050565b600061332f82613258565b6133398185613263565b935061334483613274565b8060005b8381101561337557815161335c88826132ff565b975061336783613317565b925050600181019050613348565b5085935050505092915050565b6000606082019050818103600083015261339c8186612a3e565b905081810360208301526133b081856131fa565b905081810360408301526133c48184613324565b9050949350505050565b60006133d98261185e565b9050919050565b6133e9816133ce565b81146133f457600080fd5b50565b600081519050613406816133e0565b92915050565b6000806040838503121561342357613422611854565b5b600061343185828601612bbf565b9250506020613442858286016133f7565b9150509250929050565b7f4e487b7100000000000000000000000000000000000000000000000000000000600052602160045260246000fdfea2646970667358221220c11be1e080819cc34f4e565c91f6273982c8f23138f0d80330c5538cbec11bde64736f6c63430008110033",
    "immutableReferences": {},
    "source": "// SPDX-License-Identifier: MIT\npragma solidity >=0.4.22 <0.9.0;\n\nimport \"../hedera-smart-contracts/contracts/hts-precompile/HederaTokenService.sol\";\nimport \"../hedera-smart-contracts/contracts/hts-precompile/IHederaTokenService.sol\";\nimport \"../hedera-smart-contracts/contracts/hts-precompile/HederaResponseCodes.sol\";\nimport \"../hedera-smart-contracts/contracts/hts-precompile/ExpiryHelper.sol\";\n\nstruct RoyaltyFeeData {\n    uint32 numerator;\n    uint32 denominator;\n    address feeCollector;\n}\n\ncontract Minting is ExpiryHelper {\n    function createNft(\n        string memory name,\n        string memory symbol,\n        int64 maxSupply,\n        uint32 autoRenewPeriod,\n        RoyaltyFeeData[] memory royaltyFeesData\n    ) public payable returns (address) {\n        IHederaTokenService.TokenKey[]\n            memory keys = new IHederaTokenService.TokenKey[](1);\n\n        keys[0] = getSingleKey(\n            KeyType.SUPPLY,\n            KeyValueType.CONTRACT_ID,\n            address(this)\n        );\n\n        IHederaTokenService.HederaToken memory token;\n        token.name = name;\n        token.symbol = symbol;\n        token.treasury = msg.sender;\n        token.tokenSupplyType = true;\n        token.maxSupply = maxSupply;\n        token.tokenKeys = keys;\n        token.freezeDefault = false;\n        token.expiry = createAutoRenewExpiry(msg.sender, autoRenewPeriod);\n\n        // Create royalty fees\n        IHederaTokenService.RoyaltyFee[]\n            memory royaltyFees = new IHederaTokenService.RoyaltyFee[](royaltyFeesData.length);\n        for (uint32 i = 0; i < royaltyFeesData.length; ++i) {\n            IHederaTokenService.RoyaltyFee memory fee;\n            fee.numerator = royaltyFeesData[i].numerator;\n            fee.denominator = royaltyFeesData[i].denominator;\n            fee.feeCollector = royaltyFeesData[i].feeCollector;\n            royaltyFees[i] = fee;\n        }\n\n        IHederaTokenService.FixedFee[]\n            memory fixedFees = new IHederaTokenService.FixedFee[](0);\n        (int256 responseCode, address createdToken) = HederaTokenService\n            .createNonFungibleTokenWithCustomFees(\n                token,\n                fixedFees,\n                royaltyFees\n            );\n\n        if (responseCode != HederaResponseCodes.SUCCESS) {\n            revert(\"Failed to create non-fungible token.\");\n        }\n        return createdToken;\n    }\n\n    function mintNft(address token, bytes[] memory metadata)\n        public\n        returns (int64)\n    {\n        (int256 response, , int64[] memory serials) = HederaTokenService\n            .mintToken(token, 0, metadata);\n\n        if (response != HederaResponseCodes.SUCCESS) {\n            revert(\"Failed to mint non-fungible token.\");\n        }\n        return serials[0];\n    }\n\n    function mintMultipleNfts(address token, bytes[] memory metadataList)\n        public\n        returns (int64[] memory)\n    {\n        int64[] memory serials = new int64[](metadataList.length);\n        bytes[] memory currentMetadata = new bytes[](1);\n        for (uint256 i = 0; i < metadataList.length; ++i) {\n            currentMetadata[0] = metadataList[i];\n            serials[i] = mintNft(token, currentMetadata);\n        }\n        return serials;\n    }\n\n    function createTokenAndMintMultipleNfts(\n        string memory name,\n        string memory symbol,\n        int64 maxSupply,\n        uint32 autoRenewPeriod,\n        bytes[] memory metadataList,\n        RoyaltyFeeData[] memory royaltyFees\n    ) external payable returns (address tokenId) {\n        tokenId = createNft(\n            name,\n            symbol,\n            maxSupply,\n            autoRenewPeriod,\n            royaltyFees\n        );\n        mintMultipleNfts(tokenId, metadataList);\n        return tokenId;\n    }\n}\n",
    "sourcePath": "/home/aseidma/hashguild/hedera-minting/contracts/Minting.sol",
    "compiler": {
        "name": "solc",
        "version": "0.8.17+commit.8df45f5f.Emscripten.clang"
    },
    "schemaVersion": "3.4.10",
    "updatedAt": "2022-10-21T12:40:54.521Z",
    "devdoc": {
        "kind": "dev",
        "methods": {
            "getTokenExpiryInfo(address)": {
                "params": {
                    "token": "The token address"
                },
                "returns": {
                    "expiryInfo": "The expiry info of the token",
                    "responseCode": "The response code for the status of the request. SUCCESS is 22."
                }
            },
            "grantTokenKyc(address,address)": {
                "params": {
                    "account": "The account address to grant kyc",
                    "token": "The token address"
                },
                "returns": {
                    "responseCode": "The response code for the status of the request. SUCCESS is 22."
                }
            },
            "isKyc(address,address)": {
                "params": {
                    "account": "The account address associated with the token",
                    "token": "The token address to check"
                },
                "returns": {
                    "kycGranted": "True if `account` has kyc granted for `token`",
                    "responseCode": "The response code for the status of the request. SUCCESS is 22."
                }
            },
            "pauseToken(address)": {
                "params": {
                    "token": "The token address to be paused"
                },
                "returns": {
                    "responseCode": "The response code for the status of the request. SUCCESS is 22."
                }
            },
            "revokeTokenKyc(address,address)": {
                "params": {
                    "account": "The account address to revoke kyc",
                    "token": "The token address"
                },
                "returns": {
                    "responseCode": "The response code for the status of the request. SUCCESS is 22."
                }
            },
            "unpauseToken(address)": {
                "params": {
                    "token": "The token address to be unpaused"
                },
                "returns": {
                    "responseCode": "The response code for the status of the request. SUCCESS is 22."
                }
            },
            "updateTokenExpiryInfo(address,(uint32,address,uint32))": {
                "params": {
                    "token": "The token address"
                },
                "returns": {
                    "responseCode": "The response code for the status of the request. SUCCESS is 22."
                }
            },
            "updateTokenInfo(address,(string,string,address,string,bool,int64,bool,(uint256,(bool,address,bytes,bytes,address))[],(uint32,address,uint32)))": {
                "params": {
                    "token": "The token address",
                    "tokenInfo": "The hedera token info to update token with"
                },
                "returns": {
                    "responseCode": "The response code for the status of the request. SUCCESS is 22."
                }
            }
        },
        "version": 1
    },
    "userdoc": {
        "kind": "user",
        "methods": {
            "getTokenExpiryInfo(address)": {
                "notice": "Operation to get token expiry info"
            },
            "grantTokenKyc(address,address)": {
                "notice": "Operation to grant kyc to token account"
            },
            "isKyc(address,address)": {
                "notice": "Query if token account has kyc granted"
            },
            "pauseToken(address)": {
                "notice": "Operation to pause token"
            },
            "revokeTokenKyc(address,address)": {
                "notice": "Operation to revoke kyc to token account"
            },
            "unpauseToken(address)": {
                "notice": "Operation to unpause token"
            },
            "updateTokenExpiryInfo(address,(uint32,address,uint32))": {
                "notice": "Operation to update token expiry info"
            },
            "updateTokenInfo(address,(string,string,address,string,bool,int64,bool,(uint256,(bool,address,bytes,bytes,address))[],(uint32,address,uint32)))": {
                "notice": "Operation to update token info"
            }
        },
        "version": 1
    }
}