{
    "contractName": "Minting",
    "abi": [
        {
            "inputs": [
                {
                    "internalType": "address",
                    "name": "token",
                    "type": "address"
                }
            ],
            "name": "getTokenExpiryInfo",
            "outputs": [
                {
                    "internalType": "int256",
                    "name": "responseCode",
                    "type": "int256"
                },
                {
                    "components": [
                        {
                            "internalType": "uint32",
                            "name": "second",
                            "type": "uint32"
                        },
                        {
                            "internalType": "address",
                            "name": "autoRenewAccount",
                            "type": "address"
                        },
                        {
                            "internalType": "uint32",
                            "name": "autoRenewPeriod",
                            "type": "uint32"
                        }
                    ],
                    "internalType": "struct IHederaTokenService.Expiry",
                    "name": "expiryInfo",
                    "type": "tuple"
                }
            ],
            "stateMutability": "nonpayable",
            "type": "function"
        },
        {
            "inputs": [
                {
                    "internalType": "address",
                    "name": "token",
                    "type": "address"
                },
                {
                    "internalType": "address",
                    "name": "account",
                    "type": "address"
                }
            ],
            "name": "grantTokenKyc",
            "outputs": [
                {
                    "internalType": "int64",
                    "name": "responseCode",
                    "type": "int64"
                }
            ],
            "stateMutability": "nonpayable",
            "type": "function"
        },
        {
            "inputs": [
                {
                    "internalType": "address",
                    "name": "token",
                    "type": "address"
                },
                {
                    "internalType": "address",
                    "name": "account",
                    "type": "address"
                }
            ],
            "name": "isKyc",
            "outputs": [
                {
                    "internalType": "int64",
                    "name": "responseCode",
                    "type": "int64"
                },
                {
                    "internalType": "bool",
                    "name": "kycGranted",
                    "type": "bool"
                }
            ],
            "stateMutability": "nonpayable",
            "type": "function"
        },
        {
            "inputs": [
                {
                    "internalType": "address",
                    "name": "token",
                    "type": "address"
                }
            ],
            "name": "pauseToken",
            "outputs": [
                {
                    "internalType": "int256",
                    "name": "responseCode",
                    "type": "int256"
                }
            ],
            "stateMutability": "nonpayable",
            "type": "function"
        },
        {
            "inputs": [
                {
                    "internalType": "address",
                    "name": "token",
                    "type": "address"
                },
                {
                    "internalType": "address",
                    "name": "account",
                    "type": "address"
                }
            ],
            "name": "revokeTokenKyc",
            "outputs": [
                {
                    "internalType": "int64",
                    "name": "responseCode",
                    "type": "int64"
                }
            ],
            "stateMutability": "nonpayable",
            "type": "function"
        },
        {
            "inputs": [
                {
                    "internalType": "address",
                    "name": "token",
                    "type": "address"
                }
            ],
            "name": "unpauseToken",
            "outputs": [
                {
                    "internalType": "int256",
                    "name": "responseCode",
                    "type": "int256"
                }
            ],
            "stateMutability": "nonpayable",
            "type": "function"
        },
        {
            "inputs": [
                {
                    "internalType": "address",
                    "name": "token",
                    "type": "address"
                },
                {
                    "components": [
                        {
                            "internalType": "uint32",
                            "name": "second",
                            "type": "uint32"
                        },
                        {
                            "internalType": "address",
                            "name": "autoRenewAccount",
                            "type": "address"
                        },
                        {
                            "internalType": "uint32",
                            "name": "autoRenewPeriod",
                            "type": "uint32"
                        }
                    ],
                    "internalType": "struct IHederaTokenService.Expiry",
                    "name": "expiryInfo",
                    "type": "tuple"
                }
            ],
            "name": "updateTokenExpiryInfo",
            "outputs": [
                {
                    "internalType": "int256",
                    "name": "responseCode",
                    "type": "int256"
                }
            ],
            "stateMutability": "nonpayable",
            "type": "function"
        },
        {
            "inputs": [
                {
                    "internalType": "address",
                    "name": "token",
                    "type": "address"
                },
                {
                    "components": [
                        {
                            "internalType": "string",
                            "name": "name",
                            "type": "string"
                        },
                        {
                            "internalType": "string",
                            "name": "symbol",
                            "type": "string"
                        },
                        {
                            "internalType": "address",
                            "name": "treasury",
                            "type": "address"
                        },
                        {
                            "internalType": "string",
                            "name": "memo",
                            "type": "string"
                        },
                        {
                            "internalType": "bool",
                            "name": "tokenSupplyType",
                            "type": "bool"
                        },
                        {
                            "internalType": "int64",
                            "name": "maxSupply",
                            "type": "int64"
                        },
                        {
                            "internalType": "bool",
                            "name": "freezeDefault",
                            "type": "bool"
                        },
                        {
                            "components": [
                                {
                                    "internalType": "uint256",
                                    "name": "keyType",
                                    "type": "uint256"
                                },
                                {
                                    "components": [
                                        {
                                            "internalType": "bool",
                                            "name": "inheritAccountKey",
                                            "type": "bool"
                                        },
                                        {
                                            "internalType": "address",
                                            "name": "contractId",
                                            "type": "address"
                                        },
                                        {
                                            "internalType": "bytes",
                                            "name": "ed25519",
                                            "type": "bytes"
                                        },
                                        {
                                            "internalType": "bytes",
                                            "name": "ECDSA_secp256k1",
                                            "type": "bytes"
                                        },
                                        {
                                            "internalType": "address",
                                            "name": "delegatableContractId",
                                            "type": "address"
                                        }
                                    ],
                                    "internalType": "struct IHederaTokenService.KeyValue",
                                    "name": "key",
                                    "type": "tuple"
                                }
                            ],
                            "internalType": "struct IHederaTokenService.TokenKey[]",
                            "name": "tokenKeys",
                            "type": "tuple[]"
                        },
                        {
                            "components": [
                                {
                                    "internalType": "uint32",
                                    "name": "second",
                                    "type": "uint32"
                                },
                                {
                                    "internalType": "address",
                                    "name": "autoRenewAccount",
                                    "type": "address"
                                },
                                {
                                    "internalType": "uint32",
                                    "name": "autoRenewPeriod",
                                    "type": "uint32"
                                }
                            ],
                            "internalType": "struct IHederaTokenService.Expiry",
                            "name": "expiry",
                            "type": "tuple"
                        }
                    ],
                    "internalType": "struct IHederaTokenService.HederaToken",
                    "name": "tokenInfo",
                    "type": "tuple"
                }
            ],
            "name": "updateTokenInfo",
            "outputs": [
                {
                    "internalType": "int256",
                    "name": "responseCode",
                    "type": "int256"
                }
            ],
            "stateMutability": "nonpayable",
            "type": "function"
        },
        {
            "inputs": [
                {
                    "internalType": "string",
                    "name": "message",
                    "type": "string"
                }
            ],
            "name": "hello",
            "outputs": [
                {
                    "internalType": "string",
                    "name": "",
                    "type": "string"
                }
            ],
            "stateMutability": "pure",
            "type": "function"
        },
        {
            "inputs": [
                {
                    "internalType": "string",
                    "name": "name",
                    "type": "string"
                },
                {
                    "internalType": "string",
                    "name": "symbol",
                    "type": "string"
                },
                {
                    "internalType": "int64",
                    "name": "maxSupply",
                    "type": "int64"
                },
                {
                    "internalType": "uint32",
                    "name": "autoRenewPeriod",
                    "type": "uint32"
                },
                {
                    "components": [
                        {
                            "internalType": "uint32",
                            "name": "numerator",
                            "type": "uint32"
                        },
                        {
                            "internalType": "uint32",
                            "name": "denominator",
                            "type": "uint32"
                        },
                        {
                            "internalType": "address",
                            "name": "feeCollector",
                            "type": "address"
                        }
                    ],
                    "internalType": "struct RoyaltyFeeData[]",
                    "name": "royaltyFeesData",
                    "type": "tuple[]"
                }
            ],
            "name": "createNft",
            "outputs": [
                {
                    "internalType": "address",
                    "name": "",
                    "type": "address"
                }
            ],
            "stateMutability": "payable",
            "type": "function"
        },
        {
            "inputs": [
                {
                    "internalType": "address",
                    "name": "token",
                    "type": "address"
                },
                {
                    "internalType": "bytes[]",
                    "name": "metadata",
                    "type": "bytes[]"
                }
            ],
            "name": "mintNft",
            "outputs": [
                {
                    "internalType": "int64",
                    "name": "",
                    "type": "int64"
                }
            ],
            "stateMutability": "nonpayable",
            "type": "function"
        },
        {
            "inputs": [
                {
                    "internalType": "address",
                    "name": "token",
                    "type": "address"
                },
                {
                    "internalType": "bytes[]",
                    "name": "metadataList",
                    "type": "bytes[]"
                }
            ],
            "name": "mintMultipleNfts",
            "outputs": [
                {
                    "internalType": "int64[]",
                    "name": "",
                    "type": "int64[]"
                }
            ],
            "stateMutability": "nonpayable",
            "type": "function"
        },
        {
            "inputs": [
                {
                    "internalType": "string",
                    "name": "name",
                    "type": "string"
                },
                {
                    "internalType": "string",
                    "name": "symbol",
                    "type": "string"
                },
                {
                    "internalType": "int64",
                    "name": "maxSupply",
                    "type": "int64"
                },
                {
                    "internalType": "uint32",
                    "name": "autoRenewPeriod",
                    "type": "uint32"
                },
                {
                    "internalType": "bytes[]",
                    "name": "metadataList",
                    "type": "bytes[]"
                },
                {
                    "components": [
                        {
                            "internalType": "uint32",
                            "name": "numerator",
                            "type": "uint32"
                        },
                        {
                            "internalType": "uint32",
                            "name": "denominator",
                            "type": "uint32"
                        },
                        {
                            "internalType": "address",
                            "name": "feeCollector",
                            "type": "address"
                        }
                    ],
                    "internalType": "struct RoyaltyFeeData[]",
                    "name": "royaltyFees",
                    "type": "tuple[]"
                }
            ],
            "name": "createTokenAndMintMultipleNfts",
            "outputs": [
                {
                    "internalType": "address",
                    "name": "tokenId",
                    "type": "address"
                }
            ],
            "stateMutability": "payable",
            "type": "function"
        }
    ],
    "bytecode": "0x60806040523480156200001157600080fd5b5060018060008060068111156200002d576200002c620001f1565b5b6006811115620000425762000041620001f1565b5b81526020019081526020016000208190555060026001600060016006811115620000715762000070620001f1565b5b6006811115620000865762000085620001f1565b5b81526020019081526020016000208190555060046001600060026006811115620000b557620000b4620001f1565b5b6006811115620000ca57620000c9620001f1565b5b81526020019081526020016000208190555060086001600060036006811115620000f957620000f8620001f1565b5b60068111156200010e576200010d620001f1565b5b815260200190815260200160002081905550601060016000600460068111156200013d576200013c620001f1565b5b6006811115620001525762000151620001f1565b5b81526020019081526020016000208190555060206001600060056006811115620001815762000180620001f1565b5b6006811115620001965762000195620001f1565b5b815260200190815260200160002081905550604060016000600680811115620001c457620001c3620001f1565b5b6006811115620001d957620001d8620001f1565b5b81526020019081526020016000208190555062000220565b7f4e487b7100000000000000000000000000000000000000000000000000000000600052602160045260246000fd5b61362b80620002306000396000f3fe6080604052600436106100c25760003560e01c80637c41ad2c1161007f578063a777d0dc11610059578063a777d0dc146102d2578063af99c6331461030f578063d614cdb81461034c578063f2c31ff41461038a576100c2565b80637c41ad2c146102285780638507c521146102655780638f8d7f9914610295576100c2565b80630a284cb6146100c757806318370d34146101045780631fbed3bb146101415780633b3bff0f1461017e578063593d6e82146101bb5780635d77e96c146101f8575b600080fd5b3480156100d357600080fd5b506100ee60048036038101906100e99190611bbe565b6103c8565b6040516100fb9190611c36565b60405180910390f35b34801561011057600080fd5b5061012b60048036038101906101269190612197565b61044a565b604051610138919061220c565b60405180910390f35b34801561014d57600080fd5b5061016860048036038101906101639190611bbe565b610562565b60405161017591906122e5565b60405180910390f35b34801561018a57600080fd5b506101a560048036038101906101a09190612307565b610699565b6040516101b2919061220c565b60405180910390f35b3480156101c757600080fd5b506101e260048036038101906101dd9190612334565b6107ae565b6040516101ef919061220c565b60405180910390f35b610212600480360381019061020d919061249b565b6108c6565b60405161021f91906125a7565b60405180910390f35b34801561023457600080fd5b5061024f600480360381019061024a9190612307565b6108ec565b60405161025c919061220c565b60405180910390f35b61027f600480360381019061027a91906125c2565b610a01565b60405161028c91906125a7565b60405180910390f35b3480156102a157600080fd5b506102bc60048036038101906102b79190612691565b610dde565b6040516102c99190611c36565b60405180910390f35b3480156102de57600080fd5b506102f960048036038101906102f491906126d1565b610ef6565b6040516103069190612799565b60405180910390f35b34801561031b57600080fd5b5061033660048036038101906103319190612691565b610f00565b6040516103439190611c36565b60405180910390f35b34801561035857600080fd5b50610373600480360381019061036e9190612307565b611018565b60405161038192919061281b565b60405180910390f35b34801561039657600080fd5b506103b160048036038101906103ac9190612691565b611148565b6040516103bf929190612853565b60405180910390f35b60008060006103d98560008661126d565b9250509150601660030b8214610424576040517f08c379a000000000000000000000000000000000000000000000000000000000815260040161041b906128ee565b60405180910390fd5b806000815181106104385761043761290e565b5b60200260200101519250505092915050565b600080600061016773ffffffffffffffffffffffffffffffffffffffff166318370d3460e01b8686604051602401610483929190612c92565b604051602081830303815290604052907bffffffffffffffffffffffffffffffffffffffffffffffffffffffff19166020820180517bffffffffffffffffffffffffffffffffffffffffffffffffffffffff83818316178352505050506040516104ed9190612cfe565b6000604051808303816000865af19150503d806000811461052a576040519150601f19603f3d011682016040523d82523d6000602084013e61052f565b606091505b509150915081610540576015610555565b808060200190518101906105549190612d4e565b5b60030b9250505092915050565b60606000825167ffffffffffffffff811115610581576105806119a8565b5b6040519080825280602002602001820160405280156105af5781602001602082028036833780820191505090505b5090506000600167ffffffffffffffff8111156105cf576105ce6119a8565b5b60405190808252806020026020018201604052801561060257816020015b60608152602001906001900390816105ed5790505b50905060005b845181101561068d578481815181106106245761062361290e565b5b6020026020010151826000815181106106405761063f61290e565b5b602002602001018190525061065586836103c8565b8382815181106106685761066761290e565b5b602002602001019060070b908160070b815250508061068690612daa565b9050610608565b50819250505092915050565b600080600061016773ffffffffffffffffffffffffffffffffffffffff16633b3bff0f60e01b856040516024016106d091906125a7565b604051602081830303815290604052907bffffffffffffffffffffffffffffffffffffffffffffffffffffffff19166020820180517bffffffffffffffffffffffffffffffffffffffffffffffffffffffff838183161783525050505060405161073a9190612cfe565b6000604051808303816000865af19150503d8060008114610777576040519150601f19603f3d011682016040523d82523d6000602084013e61077c565b606091505b50915091508161078d5760156107a2565b808060200190518101906107a19190612d4e565b5b60030b92505050919050565b600080600061016773ffffffffffffffffffffffffffffffffffffffff1663593d6e8260e01b86866040516024016107e7929190612df2565b604051602081830303815290604052907bffffffffffffffffffffffffffffffffffffffffffffffffffffffff19166020820180517bffffffffffffffffffffffffffffffffffffffffffffffffffffffff83818316178352505050506040516108519190612cfe565b6000604051808303816000865af19150503d806000811461088e576040519150601f19603f3d011682016040523d82523d6000602084013e610893565b606091505b5091509150816108a45760156108b9565b808060200190518101906108b89190612d4e565b5b60030b9250505092915050565b60006108d58787878786610a01565b90506108e18184610562565b509695505050505050565b600080600061016773ffffffffffffffffffffffffffffffffffffffff16637c41ad2c60e01b8560405160240161092391906125a7565b604051602081830303815290604052907bffffffffffffffffffffffffffffffffffffffffffffffffffffffff19166020820180517bffffffffffffffffffffffffffffffffffffffffffffffffffffffff838183161783525050505060405161098d9190612cfe565b6000604051808303816000865af19150503d80600081146109ca576040519150601f19603f3d011682016040523d82523d6000602084013e6109cf565b606091505b5091509150816109e05760156109f5565b808060200190518101906109f49190612d4e565b5b60030b92505050919050565b600080600167ffffffffffffffff811115610a1f57610a1e6119a8565b5b604051908082528060200260200182016040528015610a5857816020015b610a45611716565b815260200190600190039081610a3d5790505b509050610a6860046001306113e5565b81600081518110610a7c57610a7b61290e565b5b6020026020010181905250610a8f611736565b87816000018190525086816020018190525033816040019073ffffffffffffffffffffffffffffffffffffffff16908173ffffffffffffffffffffffffffffffffffffffff16815250506001816080019015159081151581525050858160a0019060070b908160070b81525050818160e0018190525060008160c0019015159081151581525050610b20338661141c565b816101000181905250610b316117a5565b6064816000019063ffffffff16908163ffffffff16815250506103e8816020019063ffffffff16908163ffffffff1681525050338160a0019073ffffffffffffffffffffffffffffffffffffffff16908173ffffffffffffffffffffffffffffffffffffffff16815250506000855167ffffffffffffffff811115610bb957610bb86119a8565b5b604051908082528060200260200182016040528015610bf257816020015b610bdf6117a5565b815260200190600190039081610bd75790505b50905060005b86518163ffffffff161015610d1a57610c0f6117a5565b878263ffffffff1681518110610c2857610c2761290e565b5b602002602001015160000151816000019063ffffffff16908163ffffffff1681525050878263ffffffff1681518110610c6457610c6361290e565b5b602002602001015160200151816020019063ffffffff16908163ffffffff1681525050878263ffffffff1681518110610ca057610c9f61290e565b5b6020026020010151604001518160a0019073ffffffffffffffffffffffffffffffffffffffff16908173ffffffffffffffffffffffffffffffffffffffff168152505080838363ffffffff1681518110610cfd57610cfc61290e565b5b60200260200101819052505080610d1390612e1b565b9050610bf8565b5060008067ffffffffffffffff811115610d3757610d366119a8565b5b604051908082528060200260200182016040528015610d7057816020015b610d5d61181b565b815260200190600190039081610d555790505b509050600080610d8186848661147a565b91509150601660030b8214610dcb576040517f08c379a0000000000000000000000000000000000000000000000000000000008152600401610dc290612eb9565b60405180910390fd5b8097505050505050505095945050505050565b600080600061016773ffffffffffffffffffffffffffffffffffffffff16638f8d7f9960e01b8686604051602401610e17929190612ed9565b604051602081830303815290604052907bffffffffffffffffffffffffffffffffffffffffffffffffffffffff19166020820180517bffffffffffffffffffffffffffffffffffffffffffffffffffffffff8381831617835250505050604051610e819190612cfe565b6000604051808303816000865af19150503d8060008114610ebe576040519150601f19603f3d011682016040523d82523d6000602084013e610ec3565b606091505b509150915081610ed4576015610ee9565b80806020019051810190610ee89190612d4e565b5b60030b9250505092915050565b6060819050919050565b600080600061016773ffffffffffffffffffffffffffffffffffffffff1663af99c63360e01b8686604051602401610f39929190612ed9565b604051602081830303815290604052907bffffffffffffffffffffffffffffffffffffffffffffffffffffffff19166020820180517bffffffffffffffffffffffffffffffffffffffffffffffffffffffff8381831617835250505050604051610fa39190612cfe565b6000604051808303816000865af19150503d8060008114610fe0576040519150601f19603f3d011682016040523d82523d6000602084013e610fe5565b606091505b509150915081610ff657601561100b565b8080602001905181019061100a9190612d4e565b5b60030b9250505092915050565b6000611022611880565b60008061016773ffffffffffffffffffffffffffffffffffffffff1663d614cdb860e01b8660405160240161105791906125a7565b604051602081830303815290604052907bffffffffffffffffffffffffffffffffffffffffffffffffffffffff19166020820180517bffffffffffffffffffffffffffffffffffffffffffffffffffffffff83818316178352505050506040516110c19190612cfe565b6000604051808303816000865af19150503d80600081146110fe576040519150601f19603f3d011682016040523d82523d6000602084013e611103565b606091505b5091509150611110611880565b8261111d57601581611132565b818060200190518101906111319190612f90565b5b8160030b91508095508196505050505050915091565b60008060008061016773ffffffffffffffffffffffffffffffffffffffff1663f2c31ff460e01b8787604051602401611182929190612ed9565b604051602081830303815290604052907bffffffffffffffffffffffffffffffffffffffffffffffffffffffff19166020820180517bffffffffffffffffffffffffffffffffffffffffffffffffffffffff83818316178352505050506040516111ec9190612cfe565b6000604051808303816000865af19150503d8060008114611229576040519150601f19603f3d011682016040523d82523d6000602084013e61122e565b606091505b5091509150816112415760156000611256565b808060200190518101906112559190612fe5565b5b8160030b9150809450819550505050509250929050565b600080606060008061016773ffffffffffffffffffffffffffffffffffffffff1663278e0b8860e01b8989896040516024016112ab9392919061310a565b604051602081830303815290604052907bffffffffffffffffffffffffffffffffffffffffffffffffffffffff19166020820180517bffffffffffffffffffffffffffffffffffffffffffffffffffffffff83818316178352505050506040516113159190612cfe565b6000604051808303816000865af19150503d8060008114611352576040519150601f19603f3d011682016040523d82523d6000602084013e611357565b606091505b5091509150816113b357601560008067ffffffffffffffff81111561137f5761137e6119a8565b5b6040519080825280602002602001820160405280156113ad5781602001602082028036833780820191505090505b506113c8565b808060200190518101906113c7919061324c565b5b8260030b9250809550819650829750505050505093509350939050565b6113ed611716565b6040518060400160405280611401866115f9565b8152602001611410858561163a565b81525090509392505050565b611424611880565b82816020019073ffffffffffffffffffffffffffffffffffffffff16908173ffffffffffffffffffffffffffffffffffffffff168152505081816040019063ffffffff16908163ffffffff168152505092915050565b6000808460008161010001516000015163ffffffff161480156114ac575060008161010001516040015163ffffffff16145b156114d2576276a7008161010001516040019063ffffffff16908163ffffffff16815250505b60008061016773ffffffffffffffffffffffffffffffffffffffff1634634573396960e01b8a8a8a60405160240161150c939291906134fc565b604051602081830303815290604052907bffffffffffffffffffffffffffffffffffffffffffffffffffffffff19166020820180517bffffffffffffffffffffffffffffffffffffffffffffffffffffffff83818316178352505050506040516115769190612cfe565b60006040518083038185875af1925050503d80600081146115b3576040519150601f19603f3d011682016040523d82523d6000602084013e6115b8565b606091505b5091509150816115cb57601560006115e0565b808060200190518101906115df9190613586565b5b8160030b91508095508196505050505050935093915050565b600060016000836006811115611612576116116135c6565b5b6006811115611624576116236135c6565b5b8152602001908152602001600020549050919050565b6116426118c3565b60016004811115611656576116556135c6565b5b836004811115611669576116686135c6565b5b036116ab5781816020019073ffffffffffffffffffffffffffffffffffffffff16908173ffffffffffffffffffffffffffffffffffffffff1681525050611710565b6004808111156116be576116bd6135c6565b5b8360048111156116d1576116d06135c6565b5b0361170f5781816080019073ffffffffffffffffffffffffffffffffffffffff16908173ffffffffffffffffffffffffffffffffffffffff16815250505b5b92915050565b6040518060400160405280600081526020016117306118c3565b81525090565b6040518061012001604052806060815260200160608152602001600073ffffffffffffffffffffffffffffffffffffffff16815260200160608152602001600015158152602001600060070b81526020016000151581526020016060815260200161179f611880565b81525090565b6040518060c00160405280600063ffffffff168152602001600063ffffffff168152602001600063ffffffff168152602001600073ffffffffffffffffffffffffffffffffffffffff168152602001600015158152602001600073ffffffffffffffffffffffffffffffffffffffff1681525090565b6040518060a00160405280600063ffffffff168152602001600073ffffffffffffffffffffffffffffffffffffffff168152602001600015158152602001600015158152602001600073ffffffffffffffffffffffffffffffffffffffff1681525090565b6040518060600160405280600063ffffffff168152602001600073ffffffffffffffffffffffffffffffffffffffff168152602001600063ffffffff1681525090565b6040518060a00160405280600015158152602001600073ffffffffffffffffffffffffffffffffffffffff1681526020016060815260200160608152602001600073ffffffffffffffffffffffffffffffffffffffff1681525090565b6000604051905090565b600080fd5b600080fd5b600073ffffffffffffffffffffffffffffffffffffffff82169050919050565b600061195f82611934565b9050919050565b61196f81611954565b811461197a57600080fd5b50565b60008135905061198c81611966565b92915050565b600080fd5b6000601f19601f8301169050919050565b7f4e487b7100000000000000000000000000000000000000000000000000000000600052604160045260246000fd5b6119e082611997565b810181811067ffffffffffffffff821117156119ff576119fe6119a8565b5b80604052505050565b6000611a12611920565b9050611a1e82826119d7565b919050565b600067ffffffffffffffff821115611a3e57611a3d6119a8565b5b602082029050602081019050919050565b600080fd5b600080fd5b600067ffffffffffffffff821115611a7457611a736119a8565b5b611a7d82611997565b9050602081019050919050565b82818337600083830152505050565b6000611aac611aa784611a59565b611a08565b905082815260208101848484011115611ac857611ac7611a54565b5b611ad3848285611a8a565b509392505050565b600082601f830112611af057611aef611992565b5b8135611b00848260208601611a99565b91505092915050565b6000611b1c611b1784611a23565b611a08565b90508083825260208201905060208402830185811115611b3f57611b3e611a4f565b5b835b81811015611b8657803567ffffffffffffffff811115611b6457611b63611992565b5b808601611b718982611adb565b85526020850194505050602081019050611b41565b5050509392505050565b600082601f830112611ba557611ba4611992565b5b8135611bb5848260208601611b09565b91505092915050565b60008060408385031215611bd557611bd461192a565b5b6000611be38582860161197d565b925050602083013567ffffffffffffffff811115611c0457611c0361192f565b5b611c1085828601611b90565b9150509250929050565b60008160070b9050919050565b611c3081611c1a565b82525050565b6000602082019050611c4b6000830184611c27565b92915050565b600080fd5b600080fd5b600067ffffffffffffffff821115611c7657611c756119a8565b5b611c7f82611997565b9050602081019050919050565b6000611c9f611c9a84611c5b565b611a08565b905082815260208101848484011115611cbb57611cba611a54565b5b611cc6848285611a8a565b509392505050565b600082601f830112611ce357611ce2611992565b5b8135611cf3848260208601611c8c565b91505092915050565b60008115159050919050565b611d1181611cfc565b8114611d1c57600080fd5b50565b600081359050611d2e81611d08565b92915050565b611d3d81611c1a565b8114611d4857600080fd5b50565b600081359050611d5a81611d34565b92915050565b600067ffffffffffffffff821115611d7b57611d7a6119a8565b5b602082029050602081019050919050565b6000819050919050565b611d9f81611d8c565b8114611daa57600080fd5b50565b600081359050611dbc81611d96565b92915050565b600060a08284031215611dd857611dd7611c51565b5b611de260a0611a08565b90506000611df284828501611d1f565b6000830152506020611e068482850161197d565b602083015250604082013567ffffffffffffffff811115611e2a57611e29611c56565b5b611e3684828501611adb565b604083015250606082013567ffffffffffffffff811115611e5a57611e59611c56565b5b611e6684828501611adb565b6060830152506080611e7a8482850161197d565b60808301525092915050565b600060408284031215611e9c57611e9b611c51565b5b611ea66040611a08565b90506000611eb684828501611dad565b600083015250602082013567ffffffffffffffff811115611eda57611ed9611c56565b5b611ee684828501611dc2565b60208301525092915050565b6000611f05611f0084611d60565b611a08565b90508083825260208201905060208402830185811115611f2857611f27611a4f565b5b835b81811015611f6f57803567ffffffffffffffff811115611f4d57611f4c611992565b5b808601611f5a8982611e86565b85526020850194505050602081019050611f2a565b5050509392505050565b600082601f830112611f8e57611f8d611992565b5b8135611f9e848260208601611ef2565b91505092915050565b600063ffffffff82169050919050565b611fc081611fa7565b8114611fcb57600080fd5b50565b600081359050611fdd81611fb7565b92915050565b600060608284031215611ff957611ff8611c51565b5b6120036060611a08565b9050600061201384828501611fce565b60008301525060206120278482850161197d565b602083015250604061203b84828501611fce565b60408301525092915050565b6000610160828403121561205e5761205d611c51565b5b612069610120611a08565b9050600082013567ffffffffffffffff81111561208957612088611c56565b5b61209584828501611cce565b600083015250602082013567ffffffffffffffff8111156120b9576120b8611c56565b5b6120c584828501611cce565b60208301525060406120d98482850161197d565b604083015250606082013567ffffffffffffffff8111156120fd576120fc611c56565b5b61210984828501611cce565b606083015250608061211d84828501611d1f565b60808301525060a061213184828501611d4b565b60a08301525060c061214584828501611d1f565b60c08301525060e082013567ffffffffffffffff81111561216957612168611c56565b5b61217584828501611f79565b60e08301525061010061218a84828501611fe3565b6101008301525092915050565b600080604083850312156121ae576121ad61192a565b5b60006121bc8582860161197d565b925050602083013567ffffffffffffffff8111156121dd576121dc61192f565b5b6121e985828601612047565b9150509250929050565b6000819050919050565b612206816121f3565b82525050565b600060208201905061222160008301846121fd565b92915050565b600081519050919050565b600082825260208201905092915050565b6000819050602082019050919050565b61225c81611c1a565b82525050565b600061226e8383612253565b60208301905092915050565b6000602082019050919050565b600061229282612227565b61229c8185612232565b93506122a783612243565b8060005b838110156122d85781516122bf8882612262565b97506122ca8361227a565b9250506001810190506122ab565b5085935050505092915050565b600060208201905081810360008301526122ff8184612287565b905092915050565b60006020828403121561231d5761231c61192a565b5b600061232b8482850161197d565b91505092915050565b6000806080838503121561234b5761234a61192a565b5b60006123598582860161197d565b925050602061236a85828601611fe3565b9150509250929050565b600067ffffffffffffffff82111561238f5761238e6119a8565b5b602082029050602081019050919050565b6000606082840312156123b6576123b5611c51565b5b6123c06060611a08565b905060006123d084828501611fce565b60008301525060206123e484828501611fce565b60208301525060406123f88482850161197d565b60408301525092915050565b600061241761241284612374565b611a08565b9050808382526020820190506060840283018581111561243a57612439611a4f565b5b835b81811015612463578061244f88826123a0565b84526020840193505060608101905061243c565b5050509392505050565b600082601f83011261248257612481611992565b5b8135612492848260208601612404565b91505092915050565b60008060008060008060c087890312156124b8576124b761192a565b5b600087013567ffffffffffffffff8111156124d6576124d561192f565b5b6124e289828a01611cce565b965050602087013567ffffffffffffffff8111156125035761250261192f565b5b61250f89828a01611cce565b955050604061252089828a01611d4b565b945050606061253189828a01611fce565b935050608087013567ffffffffffffffff8111156125525761255161192f565b5b61255e89828a01611b90565b92505060a087013567ffffffffffffffff81111561257f5761257e61192f565b5b61258b89828a0161246d565b9150509295509295509295565b6125a181611954565b82525050565b60006020820190506125bc6000830184612598565b92915050565b600080600080600060a086880312156125de576125dd61192a565b5b600086013567ffffffffffffffff8111156125fc576125fb61192f565b5b61260888828901611cce565b955050602086013567ffffffffffffffff8111156126295761262861192f565b5b61263588828901611cce565b945050604061264688828901611d4b565b935050606061265788828901611fce565b925050608086013567ffffffffffffffff8111156126785761267761192f565b5b6126848882890161246d565b9150509295509295909350565b600080604083850312156126a8576126a761192a565b5b60006126b68582860161197d565b92505060206126c78582860161197d565b9150509250929050565b6000602082840312156126e7576126e661192a565b5b600082013567ffffffffffffffff8111156127055761270461192f565b5b61271184828501611cce565b91505092915050565b600081519050919050565b600082825260208201905092915050565b60005b83811015612754578082015181840152602081019050612739565b60008484015250505050565b600061276b8261271a565b6127758185612725565b9350612785818560208601612736565b61278e81611997565b840191505092915050565b600060208201905081810360008301526127b38184612760565b905092915050565b6127c481611fa7565b82525050565b6127d381611954565b82525050565b6060820160008201516127ef60008501826127bb565b50602082015161280260208501826127ca565b50604082015161281560408501826127bb565b50505050565b600060808201905061283060008301856121fd565b61283d60208301846127d9565b9392505050565b61284d81611cfc565b82525050565b60006040820190506128686000830185611c27565b6128756020830184612844565b9392505050565b7f4661696c656420746f206d696e74206e6f6e2d66756e6769626c6520746f6b6560008201527f6e2e000000000000000000000000000000000000000000000000000000000000602082015250565b60006128d8602283612725565b91506128e38261287c565b604082019050919050565b60006020820190508181036000830152612907816128cb565b9050919050565b7f4e487b7100000000000000000000000000000000000000000000000000000000600052603260045260246000fd5b600082825260208201905092915050565b60006129598261271a565b612963818561293d565b9350612973818560208601612736565b61297c81611997565b840191505092915050565b61299081611cfc565b82525050565b600081519050919050565b600082825260208201905092915050565b6000819050602082019050919050565b6129cb81611d8c565b82525050565b600081519050919050565b600082825260208201905092915050565b60006129f8826129d1565b612a0281856129dc565b9350612a12818560208601612736565b612a1b81611997565b840191505092915050565b600060a083016000830151612a3e6000860182612987565b506020830151612a5160208601826127ca565b5060408301518482036040860152612a6982826129ed565b91505060608301518482036060860152612a8382826129ed565b9150506080830151612a9860808601826127ca565b508091505092915050565b6000604083016000830151612abb60008601826129c2565b5060208301518482036020860152612ad38282612a26565b9150508091505092915050565b6000612aec8383612aa3565b905092915050565b6000602082019050919050565b6000612b0c82612996565b612b1681856129a1565b935083602082028501612b28856129b2565b8060005b85811015612b645784840389528151612b458582612ae0565b9450612b5083612af4565b925060208a01995050600181019050612b2c565b50829750879550505050505092915050565b606082016000820151612b8c60008501826127bb565b506020820151612b9f60208501826127ca565b506040820151612bb260408501826127bb565b50505050565b6000610160830160008301518482036000860152612bd6828261294e565b91505060208301518482036020860152612bf0828261294e565b9150506040830151612c0560408601826127ca565b5060608301518482036060860152612c1d828261294e565b9150506080830151612c326080860182612987565b5060a0830151612c4560a0860182612253565b5060c0830151612c5860c0860182612987565b5060e083015184820360e0860152612c708282612b01565b915050610100830151612c87610100860182612b76565b508091505092915050565b6000604082019050612ca76000830185612598565b8181036020830152612cb98184612bb8565b90509392505050565b600081905092915050565b6000612cd8826129d1565b612ce28185612cc2565b9350612cf2818560208601612736565b80840191505092915050565b6000612d0a8284612ccd565b915081905092915050565b60008160030b9050919050565b612d2b81612d15565b8114612d3657600080fd5b50565b600081519050612d4881612d22565b92915050565b600060208284031215612d6457612d6361192a565b5b6000612d7284828501612d39565b91505092915050565b7f4e487b7100000000000000000000000000000000000000000000000000000000600052601160045260246000fd5b6000612db582611d8c565b91507fffffffffffffffffffffffffffffffffffffffffffffffffffffffffffffffff8203612de757612de6612d7b565b5b600182019050919050565b6000608082019050612e076000830185612598565b612e1460208301846127d9565b9392505050565b6000612e2682611fa7565b915063ffffffff8203612e3c57612e3b612d7b565b5b600182019050919050565b7f4661696c656420746f20637265617465206e6f6e2d66756e6769626c6520746f60008201527f6b656e2e00000000000000000000000000000000000000000000000000000000602082015250565b6000612ea3602483612725565b9150612eae82612e47565b604082019050919050565b60006020820190508181036000830152612ed281612e96565b9050919050565b6000604082019050612eee6000830185612598565b612efb6020830184612598565b9392505050565b600081519050612f1181611fb7565b92915050565b600081519050612f2681611966565b92915050565b600060608284031215612f4257612f41611c51565b5b612f4c6060611a08565b90506000612f5c84828501612f02565b6000830152506020612f7084828501612f17565b6020830152506040612f8484828501612f02565b60408301525092915050565b60008060808385031215612fa757612fa661192a565b5b6000612fb585828601612d39565b9250506020612fc685828601612f2c565b9150509250929050565b600081519050612fdf81611d08565b92915050565b60008060408385031215612ffc57612ffb61192a565b5b600061300a85828601612d39565b925050602061301b85828601612fd0565b9150509250929050565b600067ffffffffffffffff82169050919050565b61304281613025565b82525050565b600081519050919050565b600082825260208201905092915050565b6000819050602082019050919050565b600061308083836129ed565b905092915050565b6000602082019050919050565b60006130a082613048565b6130aa8185613053565b9350836020820285016130bc85613064565b8060005b858110156130f857848403895281516130d98582613074565b94506130e483613088565b925060208a019950506001810190506130c0565b50829750879550505050505092915050565b600060608201905061311f6000830186612598565b61312c6020830185613039565b818103604083015261313e8184613095565b9050949350505050565b61315181613025565b811461315c57600080fd5b50565b60008151905061316e81613148565b92915050565b600067ffffffffffffffff82111561318f5761318e6119a8565b5b602082029050602081019050919050565b6000815190506131af81611d34565b92915050565b60006131c86131c384613174565b611a08565b905080838252602082019050602084028301858111156131eb576131ea611a4f565b5b835b81811015613214578061320088826131a0565b8452602084019350506020810190506131ed565b5050509392505050565b600082601f83011261323357613232611992565b5b81516132438482602086016131b5565b91505092915050565b6000806000606084860312156132655761326461192a565b5b600061327386828701612d39565b93505060206132848682870161315f565b925050604084015167ffffffffffffffff8111156132a5576132a461192f565b5b6132b18682870161321e565b9150509250925092565b600081519050919050565b600082825260208201905092915050565b6000819050602082019050919050565b60a0820160008201516132fd60008501826127bb565b50602082015161331060208501826127ca565b5060408201516133236040850182612987565b5060608201516133366060850182612987565b50608082015161334960808501826127ca565b50505050565b600061335b83836132e7565b60a08301905092915050565b6000602082019050919050565b600061337f826132bb565b61338981856132c6565b9350613394836132d7565b8060005b838110156133c55781516133ac888261334f565b97506133b783613367565b925050600181019050613398565b5085935050505092915050565b600081519050919050565b600082825260208201905092915050565b6000819050602082019050919050565b60c08201600082015161341460008501826127bb565b50602082015161342760208501826127bb565b50604082015161343a60408501826127bb565b50606082015161344d60608501826127ca565b5060808201516134606080850182612987565b5060a082015161347360a08501826127ca565b50505050565b600061348583836133fe565b60c08301905092915050565b6000602082019050919050565b60006134a9826133d2565b6134b381856133dd565b93506134be836133ee565b8060005b838110156134ef5781516134d68882613479565b97506134e183613491565b9250506001810190506134c2565b5085935050505092915050565b600060608201905081810360008301526135168186612bb8565b9050818103602083015261352a8185613374565b9050818103604083015261353e818461349e565b9050949350505050565b600061355382611934565b9050919050565b61356381613548565b811461356e57600080fd5b50565b6000815190506135808161355a565b92915050565b6000806040838503121561359d5761359c61192a565b5b60006135ab85828601612d39565b92505060206135bc85828601613571565b9150509250929050565b7f4e487b7100000000000000000000000000000000000000000000000000000000600052602160045260246000fdfea264697066735822122046f5ebf6836d79193a585370034a9661c3cb35a33506e5c414faf206f1f2714564736f6c63430008110033",
    "immutableReferences": {},
    "source": "// SPDX-License-Identifier: MIT\npragma solidity >=0.4.22 <0.9.0;\n\nimport \"../hedera-smart-contracts/contracts/hts-precompile/HederaTokenService.sol\";\nimport \"../hedera-smart-contracts/contracts/hts-precompile/IHederaTokenService.sol\";\nimport \"../hedera-smart-contracts/contracts/hts-precompile/HederaResponseCodes.sol\";\nimport \"../hedera-smart-contracts/contracts/hts-precompile/ExpiryHelper.sol\";\n\nstruct RoyaltyFeeData {\n    uint32 numerator;\n    uint32 denominator;\n    address feeCollector;\n}\n\ncontract Minting is ExpiryHelper {\n    function hello(string memory message) public pure returns (string memory) {\n        return message;\n    }\n\n    // /**\n    //  * Creates a new fungible token with the provided name, symbol, supply, renewPeriod and royalty fees\n    //  *\n    //  * @param royaltyFeePairs - A uint32 array of royalty fee nominators mapped to receiver addresses.\n    //  *                          The first 160 bits represent the receiver address, the remaining 96 represent the numerator.\n    //  */\n    function createNft(\n        string memory name,\n        string memory symbol,\n        int64 maxSupply,\n        uint32 autoRenewPeriod,\n        RoyaltyFeeData[] memory royaltyFeesData\n    ) public payable returns (address) {\n        IHederaTokenService.TokenKey[]\n            memory keys = new IHederaTokenService.TokenKey[](1);\n\n        keys[0] = getSingleKey(\n            KeyType.SUPPLY,\n            KeyValueType.CONTRACT_ID,\n            address(this)\n        );\n\n        IHederaTokenService.HederaToken memory token;\n        token.name = name;\n        token.symbol = symbol;\n        token.treasury = msg.sender;\n        token.tokenSupplyType = true;\n        token.maxSupply = maxSupply;\n        token.tokenKeys = keys;\n        token.freezeDefault = false;\n        token.expiry = createAutoRenewExpiry(msg.sender, autoRenewPeriod);\n\n        IHederaTokenService.RoyaltyFee memory myFee;\n        myFee.numerator = 100;\n        myFee.denominator = 1000;\n        myFee.feeCollector = msg.sender;\n\n        // Create royalty fees\n        IHederaTokenService.RoyaltyFee[]\n            memory royaltyFees = new IHederaTokenService.RoyaltyFee[](royaltyFeesData.length);\n        for (uint32 i = 0; i < royaltyFeesData.length; ++i) {\n            IHederaTokenService.RoyaltyFee memory fee;\n            fee.numerator = royaltyFeesData[i].numerator;\n            fee.denominator = royaltyFeesData[i].denominator;\n            fee.feeCollector = royaltyFeesData[i].feeCollector;\n            royaltyFees[i] = fee;\n        }\n\n        IHederaTokenService.FixedFee[]\n            memory fixedFees = new IHederaTokenService.FixedFee[](0);\n        (int256 responseCode, address createdToken) = HederaTokenService\n            .createNonFungibleTokenWithCustomFees(\n                token,\n                fixedFees,\n                royaltyFees\n            );\n\n        if (responseCode != HederaResponseCodes.SUCCESS) {\n            revert(\"Failed to create non-fungible token.\");\n        }\n        return createdToken;\n    }\n\n    function mintNft(address token, bytes[] memory metadata)\n        public\n        returns (int64)\n    {\n        (int256 response, , int64[] memory serials) = HederaTokenService\n            .mintToken(token, 0, metadata);\n\n        if (response != HederaResponseCodes.SUCCESS) {\n            revert(\"Failed to mint non-fungible token.\");\n        }\n        return serials[0];\n    }\n\n    function mintMultipleNfts(address token, bytes[] memory metadataList)\n        public\n        returns (int64[] memory)\n    {\n        int64[] memory serials = new int64[](metadataList.length);\n        bytes[] memory currentMetadata = new bytes[](1);\n        for (uint256 i = 0; i < metadataList.length; ++i) {\n            currentMetadata[0] = metadataList[i];\n            serials[i] = mintNft(token, currentMetadata);\n        }\n        return serials;\n    }\n\n    function createTokenAndMintMultipleNfts(\n        string memory name,\n        string memory symbol,\n        int64 maxSupply,\n        uint32 autoRenewPeriod,\n        bytes[] memory metadataList,\n        RoyaltyFeeData[] memory royaltyFees\n    ) external payable returns (address tokenId) {\n        tokenId = createNft(\n            name,\n            symbol,\n            maxSupply,\n            autoRenewPeriod,\n            royaltyFees\n        );\n        mintMultipleNfts(tokenId, metadataList);\n        return tokenId;\n    }\n}\n",
    "sourcePath": "/home/aseidma/hashguild/hedera-minting/contracts/Minting.sol",
    "compiler": {
        "name": "solc",
        "version": "0.8.17+commit.8df45f5f.Emscripten.clang"
    },
    "schemaVersion": "3.4.10",
    "updatedAt": "2022-10-21T11:56:50.955Z",
    "devdoc": {
        "kind": "dev",
        "methods": {
            "getTokenExpiryInfo(address)": {
                "params": {
                    "token": "The token address"
                },
                "returns": {
                    "expiryInfo": "The expiry info of the token",
                    "responseCode": "The response code for the status of the request. SUCCESS is 22."
                }
            },
            "grantTokenKyc(address,address)": {
                "params": {
                    "account": "The account address to grant kyc",
                    "token": "The token address"
                },
                "returns": {
                    "responseCode": "The response code for the status of the request. SUCCESS is 22."
                }
            },
            "isKyc(address,address)": {
                "params": {
                    "account": "The account address associated with the token",
                    "token": "The token address to check"
                },
                "returns": {
                    "kycGranted": "True if `account` has kyc granted for `token`",
                    "responseCode": "The response code for the status of the request. SUCCESS is 22."
                }
            },
            "pauseToken(address)": {
                "params": {
                    "token": "The token address to be paused"
                },
                "returns": {
                    "responseCode": "The response code for the status of the request. SUCCESS is 22."
                }
            },
            "revokeTokenKyc(address,address)": {
                "params": {
                    "account": "The account address to revoke kyc",
                    "token": "The token address"
                },
                "returns": {
                    "responseCode": "The response code for the status of the request. SUCCESS is 22."
                }
            },
            "unpauseToken(address)": {
                "params": {
                    "token": "The token address to be unpaused"
                },
                "returns": {
                    "responseCode": "The response code for the status of the request. SUCCESS is 22."
                }
            },
            "updateTokenExpiryInfo(address,(uint32,address,uint32))": {
                "params": {
                    "token": "The token address"
                },
                "returns": {
                    "responseCode": "The response code for the status of the request. SUCCESS is 22."
                }
            },
            "updateTokenInfo(address,(string,string,address,string,bool,int64,bool,(uint256,(bool,address,bytes,bytes,address))[],(uint32,address,uint32)))": {
                "params": {
                    "token": "The token address",
                    "tokenInfo": "The hedera token info to update token with"
                },
                "returns": {
                    "responseCode": "The response code for the status of the request. SUCCESS is 22."
                }
            }
        },
        "version": 1
    },
    "userdoc": {
        "kind": "user",
        "methods": {
            "getTokenExpiryInfo(address)": {
                "notice": "Operation to get token expiry info"
            },
            "grantTokenKyc(address,address)": {
                "notice": "Operation to grant kyc to token account"
            },
            "isKyc(address,address)": {
                "notice": "Query if token account has kyc granted"
            },
            "pauseToken(address)": {
                "notice": "Operation to pause token"
            },
            "revokeTokenKyc(address,address)": {
                "notice": "Operation to revoke kyc to token account"
            },
            "unpauseToken(address)": {
                "notice": "Operation to unpause token"
            },
            "updateTokenExpiryInfo(address,(uint32,address,uint32))": {
                "notice": "Operation to update token expiry info"
            },
            "updateTokenInfo(address,(string,string,address,string,bool,int64,bool,(uint256,(bool,address,bytes,bytes,address))[],(uint32,address,uint32)))": {
                "notice": "Operation to update token info"
            }
        },
        "version": 1
    }
}