{
  "contractName": "ExpiryHelper",
  "abi": [
    {
      "inputs": [
        {
          "internalType": "address",
          "name": "token",
          "type": "address"
        }
      ],
      "name": "getTokenExpiryInfo",
      "outputs": [
        {
          "internalType": "int256",
          "name": "responseCode",
          "type": "int256"
        },
        {
          "components": [
            {
              "internalType": "uint32",
              "name": "second",
              "type": "uint32"
            },
            {
              "internalType": "address",
              "name": "autoRenewAccount",
              "type": "address"
            },
            {
              "internalType": "uint32",
              "name": "autoRenewPeriod",
              "type": "uint32"
            }
          ],
          "internalType": "struct IHederaTokenService.Expiry",
          "name": "expiryInfo",
          "type": "tuple"
        }
      ],
      "stateMutability": "nonpayable",
      "type": "function"
    },
    {
      "inputs": [
        {
          "internalType": "address",
          "name": "token",
          "type": "address"
        },
        {
          "internalType": "address",
          "name": "account",
          "type": "address"
        }
      ],
      "name": "grantTokenKyc",
      "outputs": [
        {
          "internalType": "int64",
          "name": "responseCode",
          "type": "int64"
        }
      ],
      "stateMutability": "nonpayable",
      "type": "function"
    },
    {
      "inputs": [
        {
          "internalType": "address",
          "name": "token",
          "type": "address"
        },
        {
          "internalType": "address",
          "name": "account",
          "type": "address"
        }
      ],
      "name": "isKyc",
      "outputs": [
        {
          "internalType": "int64",
          "name": "responseCode",
          "type": "int64"
        },
        {
          "internalType": "bool",
          "name": "kycGranted",
          "type": "bool"
        }
      ],
      "stateMutability": "nonpayable",
      "type": "function"
    },
    {
      "inputs": [
        {
          "internalType": "address",
          "name": "token",
          "type": "address"
        }
      ],
      "name": "pauseToken",
      "outputs": [
        {
          "internalType": "int256",
          "name": "responseCode",
          "type": "int256"
        }
      ],
      "stateMutability": "nonpayable",
      "type": "function"
    },
    {
      "inputs": [
        {
          "internalType": "address",
          "name": "token",
          "type": "address"
        },
        {
          "internalType": "address",
          "name": "account",
          "type": "address"
        }
      ],
      "name": "revokeTokenKyc",
      "outputs": [
        {
          "internalType": "int64",
          "name": "responseCode",
          "type": "int64"
        }
      ],
      "stateMutability": "nonpayable",
      "type": "function"
    },
    {
      "inputs": [
        {
          "internalType": "address",
          "name": "token",
          "type": "address"
        }
      ],
      "name": "unpauseToken",
      "outputs": [
        {
          "internalType": "int256",
          "name": "responseCode",
          "type": "int256"
        }
      ],
      "stateMutability": "nonpayable",
      "type": "function"
    },
    {
      "inputs": [
        {
          "internalType": "address",
          "name": "token",
          "type": "address"
        },
        {
          "components": [
            {
              "internalType": "uint32",
              "name": "second",
              "type": "uint32"
            },
            {
              "internalType": "address",
              "name": "autoRenewAccount",
              "type": "address"
            },
            {
              "internalType": "uint32",
              "name": "autoRenewPeriod",
              "type": "uint32"
            }
          ],
          "internalType": "struct IHederaTokenService.Expiry",
          "name": "expiryInfo",
          "type": "tuple"
        }
      ],
      "name": "updateTokenExpiryInfo",
      "outputs": [
        {
          "internalType": "int256",
          "name": "responseCode",
          "type": "int256"
        }
      ],
      "stateMutability": "nonpayable",
      "type": "function"
    },
    {
      "inputs": [
        {
          "internalType": "address",
          "name": "token",
          "type": "address"
        },
        {
          "components": [
            {
              "internalType": "string",
              "name": "name",
              "type": "string"
            },
            {
              "internalType": "string",
              "name": "symbol",
              "type": "string"
            },
            {
              "internalType": "address",
              "name": "treasury",
              "type": "address"
            },
            {
              "internalType": "string",
              "name": "memo",
              "type": "string"
            },
            {
              "internalType": "bool",
              "name": "tokenSupplyType",
              "type": "bool"
            },
            {
              "internalType": "int64",
              "name": "maxSupply",
              "type": "int64"
            },
            {
              "internalType": "bool",
              "name": "freezeDefault",
              "type": "bool"
            },
            {
              "components": [
                {
                  "internalType": "uint256",
                  "name": "keyType",
                  "type": "uint256"
                },
                {
                  "components": [
                    {
                      "internalType": "bool",
                      "name": "inheritAccountKey",
                      "type": "bool"
                    },
                    {
                      "internalType": "address",
                      "name": "contractId",
                      "type": "address"
                    },
                    {
                      "internalType": "bytes",
                      "name": "ed25519",
                      "type": "bytes"
                    },
                    {
                      "internalType": "bytes",
                      "name": "ECDSA_secp256k1",
                      "type": "bytes"
                    },
                    {
                      "internalType": "address",
                      "name": "delegatableContractId",
                      "type": "address"
                    }
                  ],
                  "internalType": "struct IHederaTokenService.KeyValue",
                  "name": "key",
                  "type": "tuple"
                }
              ],
              "internalType": "struct IHederaTokenService.TokenKey[]",
              "name": "tokenKeys",
              "type": "tuple[]"
            },
            {
              "components": [
                {
                  "internalType": "uint32",
                  "name": "second",
                  "type": "uint32"
                },
                {
                  "internalType": "address",
                  "name": "autoRenewAccount",
                  "type": "address"
                },
                {
                  "internalType": "uint32",
                  "name": "autoRenewPeriod",
                  "type": "uint32"
                }
              ],
              "internalType": "struct IHederaTokenService.Expiry",
              "name": "expiry",
              "type": "tuple"
            }
          ],
          "internalType": "struct IHederaTokenService.HederaToken",
          "name": "tokenInfo",
          "type": "tuple"
        }
      ],
      "name": "updateTokenInfo",
      "outputs": [
        {
          "internalType": "int256",
          "name": "responseCode",
          "type": "int256"
        }
      ],
      "stateMutability": "nonpayable",
      "type": "function"
    }
  ],
  "bytecode": "0x60806040523480156200001157600080fd5b5060018060008060068111156200002d576200002c620001f1565b5b6006811115620000425762000041620001f1565b5b81526020019081526020016000208190555060026001600060016006811115620000715762000070620001f1565b5b6006811115620000865762000085620001f1565b5b81526020019081526020016000208190555060046001600060026006811115620000b557620000b4620001f1565b5b6006811115620000ca57620000c9620001f1565b5b81526020019081526020016000208190555060086001600060036006811115620000f957620000f8620001f1565b5b60068111156200010e576200010d620001f1565b5b815260200190815260200160002081905550601060016000600460068111156200013d576200013c620001f1565b5b6006811115620001525762000151620001f1565b5b81526020019081526020016000208190555060206001600060056006811115620001815762000180620001f1565b5b6006811115620001965762000195620001f1565b5b815260200190815260200160002081905550604060016000600680811115620001c457620001c3620001f1565b5b6006811115620001d957620001d8620001f1565b5b81526020019081526020016000208190555062000220565b7f4e487b7100000000000000000000000000000000000000000000000000000000600052602160045260246000fd5b611ac080620002306000396000f3fe608060405234801561001057600080fd5b50600436106100885760003560e01c80638f8d7f991161005b5780638f8d7f991461014d578063af99c6331461017d578063d614cdb8146101ad578063f2c31ff4146101de57610088565b806318370d341461008d5780633b3bff0f146100bd578063593d6e82146100ed5780637c41ad2c1461011d575b600080fd5b6100a760048036038101906100a29190611241565b61020f565b6040516100b491906112b6565b60405180910390f35b6100d760048036038101906100d291906112d1565b610327565b6040516100e491906112b6565b60405180910390f35b610107600480360381019061010291906112fe565b61043c565b60405161011491906112b6565b60405180910390f35b610137600480360381019061013291906112d1565b610554565b60405161014491906112b6565b60405180910390f35b6101676004803603810190610162919061133e565b610669565b604051610174919061138d565b60405180910390f35b6101976004803603810190610192919061133e565b610781565b6040516101a4919061138d565b60405180910390f35b6101c760048036038101906101c291906112d1565b610899565b6040516101d5929190611408565b60405180910390f35b6101f860048036038101906101f3919061133e565b6109c9565b604051610206929190611440565b60405180910390f35b600080600061016773ffffffffffffffffffffffffffffffffffffffff166318370d3460e01b8686604051602401610248929190611811565b604051602081830303815290604052907bffffffffffffffffffffffffffffffffffffffffffffffffffffffff19166020820180517bffffffffffffffffffffffffffffffffffffffffffffffffffffffff83818316178352505050506040516102b2919061187d565b6000604051808303816000865af19150503d80600081146102ef576040519150601f19603f3d011682016040523d82523d6000602084013e6102f4565b606091505b50915091508161030557601561031a565b8080602001905181019061031991906118cd565b5b60030b9250505092915050565b600080600061016773ffffffffffffffffffffffffffffffffffffffff16633b3bff0f60e01b8560405160240161035e91906118fa565b604051602081830303815290604052907bffffffffffffffffffffffffffffffffffffffffffffffffffffffff19166020820180517bffffffffffffffffffffffffffffffffffffffffffffffffffffffff83818316178352505050506040516103c8919061187d565b6000604051808303816000865af19150503d8060008114610405576040519150601f19603f3d011682016040523d82523d6000602084013e61040a565b606091505b50915091508161041b576015610430565b8080602001905181019061042f91906118cd565b5b60030b92505050919050565b600080600061016773ffffffffffffffffffffffffffffffffffffffff1663593d6e8260e01b8686604051602401610475929190611915565b604051602081830303815290604052907bffffffffffffffffffffffffffffffffffffffffffffffffffffffff19166020820180517bffffffffffffffffffffffffffffffffffffffffffffffffffffffff83818316178352505050506040516104df919061187d565b6000604051808303816000865af19150503d806000811461051c576040519150601f19603f3d011682016040523d82523d6000602084013e610521565b606091505b509150915081610532576015610547565b8080602001905181019061054691906118cd565b5b60030b9250505092915050565b600080600061016773ffffffffffffffffffffffffffffffffffffffff16637c41ad2c60e01b8560405160240161058b91906118fa565b604051602081830303815290604052907bffffffffffffffffffffffffffffffffffffffffffffffffffffffff19166020820180517bffffffffffffffffffffffffffffffffffffffffffffffffffffffff83818316178352505050506040516105f5919061187d565b6000604051808303816000865af19150503d8060008114610632576040519150601f19603f3d011682016040523d82523d6000602084013e610637565b606091505b50915091508161064857601561065d565b8080602001905181019061065c91906118cd565b5b60030b92505050919050565b600080600061016773ffffffffffffffffffffffffffffffffffffffff16638f8d7f9960e01b86866040516024016106a292919061193e565b604051602081830303815290604052907bffffffffffffffffffffffffffffffffffffffffffffffffffffffff19166020820180517bffffffffffffffffffffffffffffffffffffffffffffffffffffffff838183161783525050505060405161070c919061187d565b6000604051808303816000865af19150503d8060008114610749576040519150601f19603f3d011682016040523d82523d6000602084013e61074e565b606091505b50915091508161075f576015610774565b8080602001905181019061077391906118cd565b5b60030b9250505092915050565b600080600061016773ffffffffffffffffffffffffffffffffffffffff1663af99c63360e01b86866040516024016107ba92919061193e565b604051602081830303815290604052907bffffffffffffffffffffffffffffffffffffffffffffffffffffffff19166020820180517bffffffffffffffffffffffffffffffffffffffffffffffffffffffff8381831617835250505050604051610824919061187d565b6000604051808303816000865af19150503d8060008114610861576040519150601f19603f3d011682016040523d82523d6000602084013e610866565b606091505b50915091508161087757601561088c565b8080602001905181019061088b91906118cd565b5b60030b9250505092915050565b60006108a3610aee565b60008061016773ffffffffffffffffffffffffffffffffffffffff1663d614cdb860e01b866040516024016108d891906118fa565b604051602081830303815290604052907bffffffffffffffffffffffffffffffffffffffffffffffffffffffff19166020820180517bffffffffffffffffffffffffffffffffffffffffffffffffffffffff8381831617835250505050604051610942919061187d565b6000604051808303816000865af19150503d806000811461097f576040519150601f19603f3d011682016040523d82523d6000602084013e610984565b606091505b5091509150610991610aee565b8261099e576015816109b3565b818060200190518101906109b291906119f5565b5b8160030b91508095508196505050505050915091565b60008060008061016773ffffffffffffffffffffffffffffffffffffffff1663f2c31ff460e01b8787604051602401610a0392919061193e565b604051602081830303815290604052907bffffffffffffffffffffffffffffffffffffffffffffffffffffffff19166020820180517bffffffffffffffffffffffffffffffffffffffffffffffffffffffff8381831617835250505050604051610a6d919061187d565b6000604051808303816000865af19150503d8060008114610aaa576040519150601f19603f3d011682016040523d82523d6000602084013e610aaf565b606091505b509150915081610ac25760156000610ad7565b80806020019051810190610ad69190611a4a565b5b8160030b9150809450819550505050509250929050565b6040518060600160405280600063ffffffff168152602001600073ffffffffffffffffffffffffffffffffffffffff168152602001600063ffffffff1681525090565b6000604051905090565b600080fd5b600080fd5b600073ffffffffffffffffffffffffffffffffffffffff82169050919050565b6000610b7082610b45565b9050919050565b610b8081610b65565b8114610b8b57600080fd5b50565b600081359050610b9d81610b77565b92915050565b600080fd5b6000601f19601f8301169050919050565b7f4e487b7100000000000000000000000000000000000000000000000000000000600052604160045260246000fd5b610bf182610ba8565b810181811067ffffffffffffffff82111715610c1057610c0f610bb9565b5b80604052505050565b6000610c23610b31565b9050610c2f8282610be8565b919050565b600080fd5b600080fd5b600080fd5b600067ffffffffffffffff821115610c5e57610c5d610bb9565b5b610c6782610ba8565b9050602081019050919050565b82818337600083830152505050565b6000610c96610c9184610c43565b610c19565b905082815260208101848484011115610cb257610cb1610c3e565b5b610cbd848285610c74565b509392505050565b600082601f830112610cda57610cd9610c39565b5b8135610cea848260208601610c83565b91505092915050565b60008115159050919050565b610d0881610cf3565b8114610d1357600080fd5b50565b600081359050610d2581610cff565b92915050565b60008160070b9050919050565b610d4181610d2b565b8114610d4c57600080fd5b50565b600081359050610d5e81610d38565b92915050565b600067ffffffffffffffff821115610d7f57610d7e610bb9565b5b602082029050602081019050919050565b600080fd5b6000819050919050565b610da881610d95565b8114610db357600080fd5b50565b600081359050610dc581610d9f565b92915050565b600067ffffffffffffffff821115610de657610de5610bb9565b5b610def82610ba8565b9050602081019050919050565b6000610e0f610e0a84610dcb565b610c19565b905082815260208101848484011115610e2b57610e2a610c3e565b5b610e36848285610c74565b509392505050565b600082601f830112610e5357610e52610c39565b5b8135610e63848260208601610dfc565b91505092915050565b600060a08284031215610e8257610e81610ba3565b5b610e8c60a0610c19565b90506000610e9c84828501610d16565b6000830152506020610eb084828501610b8e565b602083015250604082013567ffffffffffffffff811115610ed457610ed3610c34565b5b610ee084828501610e3e565b604083015250606082013567ffffffffffffffff811115610f0457610f03610c34565b5b610f1084828501610e3e565b6060830152506080610f2484828501610b8e565b60808301525092915050565b600060408284031215610f4657610f45610ba3565b5b610f506040610c19565b90506000610f6084828501610db6565b600083015250602082013567ffffffffffffffff811115610f8457610f83610c34565b5b610f9084828501610e6c565b60208301525092915050565b6000610faf610faa84610d64565b610c19565b90508083825260208201905060208402830185811115610fd257610fd1610d90565b5b835b8181101561101957803567ffffffffffffffff811115610ff757610ff6610c39565b5b8086016110048982610f30565b85526020850194505050602081019050610fd4565b5050509392505050565b600082601f83011261103857611037610c39565b5b8135611048848260208601610f9c565b91505092915050565b600063ffffffff82169050919050565b61106a81611051565b811461107557600080fd5b50565b60008135905061108781611061565b92915050565b6000606082840312156110a3576110a2610ba3565b5b6110ad6060610c19565b905060006110bd84828501611078565b60008301525060206110d184828501610b8e565b60208301525060406110e584828501611078565b60408301525092915050565b6000610160828403121561110857611107610ba3565b5b611113610120610c19565b9050600082013567ffffffffffffffff81111561113357611132610c34565b5b61113f84828501610cc5565b600083015250602082013567ffffffffffffffff81111561116357611162610c34565b5b61116f84828501610cc5565b602083015250604061118384828501610b8e565b604083015250606082013567ffffffffffffffff8111156111a7576111a6610c34565b5b6111b384828501610cc5565b60608301525060806111c784828501610d16565b60808301525060a06111db84828501610d4f565b60a08301525060c06111ef84828501610d16565b60c08301525060e082013567ffffffffffffffff81111561121357611212610c34565b5b61121f84828501611023565b60e0830152506101006112348482850161108d565b6101008301525092915050565b6000806040838503121561125857611257610b3b565b5b600061126685828601610b8e565b925050602083013567ffffffffffffffff81111561128757611286610b40565b5b611293858286016110f1565b9150509250929050565b6000819050919050565b6112b08161129d565b82525050565b60006020820190506112cb60008301846112a7565b92915050565b6000602082840312156112e7576112e6610b3b565b5b60006112f584828501610b8e565b91505092915050565b6000806080838503121561131557611314610b3b565b5b600061132385828601610b8e565b92505060206113348582860161108d565b9150509250929050565b6000806040838503121561135557611354610b3b565b5b600061136385828601610b8e565b925050602061137485828601610b8e565b9150509250929050565b61138781610d2b565b82525050565b60006020820190506113a2600083018461137e565b92915050565b6113b181611051565b82525050565b6113c081610b65565b82525050565b6060820160008201516113dc60008501826113a8565b5060208201516113ef60208501826113b7565b50604082015161140260408501826113a8565b50505050565b600060808201905061141d60008301856112a7565b61142a60208301846113c6565b9392505050565b61143a81610cf3565b82525050565b6000604082019050611455600083018561137e565b6114626020830184611431565b9392505050565b61147281610b65565b82525050565b600081519050919050565b600082825260208201905092915050565b60005b838110156114b2578082015181840152602081019050611497565b60008484015250505050565b60006114c982611478565b6114d38185611483565b93506114e3818560208601611494565b6114ec81610ba8565b840191505092915050565b61150081610cf3565b82525050565b61150f81610d2b565b82525050565b600081519050919050565b600082825260208201905092915050565b6000819050602082019050919050565b61154a81610d95565b82525050565b600081519050919050565b600082825260208201905092915050565b600061157782611550565b611581818561155b565b9350611591818560208601611494565b61159a81610ba8565b840191505092915050565b600060a0830160008301516115bd60008601826114f7565b5060208301516115d060208601826113b7565b50604083015184820360408601526115e8828261156c565b91505060608301518482036060860152611602828261156c565b915050608083015161161760808601826113b7565b508091505092915050565b600060408301600083015161163a6000860182611541565b506020830151848203602086015261165282826115a5565b9150508091505092915050565b600061166b8383611622565b905092915050565b6000602082019050919050565b600061168b82611515565b6116958185611520565b9350836020820285016116a785611531565b8060005b858110156116e357848403895281516116c4858261165f565b94506116cf83611673565b925060208a019950506001810190506116ab565b50829750879550505050505092915050565b60608201600082015161170b60008501826113a8565b50602082015161171e60208501826113b7565b50604082015161173160408501826113a8565b50505050565b600061016083016000830151848203600086015261175582826114be565b9150506020830151848203602086015261176f82826114be565b915050604083015161178460408601826113b7565b506060830151848203606086015261179c82826114be565b91505060808301516117b160808601826114f7565b5060a08301516117c460a0860182611506565b5060c08301516117d760c08601826114f7565b5060e083015184820360e08601526117ef8282611680565b9150506101008301516118066101008601826116f5565b508091505092915050565b60006040820190506118266000830185611469565b81810360208301526118388184611737565b90509392505050565b600081905092915050565b600061185782611550565b6118618185611841565b9350611871818560208601611494565b80840191505092915050565b6000611889828461184c565b915081905092915050565b60008160030b9050919050565b6118aa81611894565b81146118b557600080fd5b50565b6000815190506118c7816118a1565b92915050565b6000602082840312156118e3576118e2610b3b565b5b60006118f1848285016118b8565b91505092915050565b600060208201905061190f6000830184611469565b92915050565b600060808201905061192a6000830185611469565b61193760208301846113c6565b9392505050565b60006040820190506119536000830185611469565b6119606020830184611469565b9392505050565b60008151905061197681611061565b92915050565b60008151905061198b81610b77565b92915050565b6000606082840312156119a7576119a6610ba3565b5b6119b16060610c19565b905060006119c184828501611967565b60008301525060206119d58482850161197c565b60208301525060406119e984828501611967565b60408301525092915050565b60008060808385031215611a0c57611a0b610b3b565b5b6000611a1a858286016118b8565b9250506020611a2b85828601611991565b9150509250929050565b600081519050611a4481610cff565b92915050565b60008060408385031215611a6157611a60610b3b565b5b6000611a6f858286016118b8565b9250506020611a8085828601611a35565b915050925092905056fea2646970667358221220b2c7fdbaf01777125c9fb96a1f65611ee654f12d84697680b070adf0259ebc7564736f6c63430008110033",
  "immutableReferences": {},
  "source": "// SPDX-License-Identifier: Apache-2.0\npragma solidity >=0.5.0 <0.9.0;\npragma experimental ABIEncoderV2;\n\nimport \"./HederaTokenService.sol\";\nimport \"./FeeHelper.sol\";\n\ncontract ExpiryHelper is FeeHelper {\n\n    function createAutoRenewExpiry(\n        address autoRenewAccount,\n        uint32 autoRenewPeriod\n    ) internal view returns (IHederaTokenService.Expiry memory expiry) {\n        expiry.autoRenewAccount = autoRenewAccount;\n        expiry.autoRenewPeriod = autoRenewPeriod;\n    }\n\n    function createSecondExpiry(uint32 second) internal view returns (IHederaTokenService.Expiry memory expiry) {\n        expiry.second = second;\n    }\n}",
  "sourcePath": "/home/aseidma/hashguild/hedera-minting/hedera-smart-contracts/contracts/hts-precompile/ExpiryHelper.sol",
  "compiler": {
    "name": "solc",
    "version": "0.8.17+commit.8df45f5f.Emscripten.clang"
  },
  "schemaVersion": "3.4.10",
  "updatedAt": "2022-12-07T15:16:31.836Z",
  "devdoc": {
    "kind": "dev",
    "methods": {
      "getTokenExpiryInfo(address)": {
        "params": {
          "token": "The token address"
        },
        "returns": {
          "expiryInfo": "The expiry info of the token",
          "responseCode": "The response code for the status of the request. SUCCESS is 22."
        }
      },
      "grantTokenKyc(address,address)": {
        "params": {
          "account": "The account address to grant kyc",
          "token": "The token address"
        },
        "returns": {
          "responseCode": "The response code for the status of the request. SUCCESS is 22."
        }
      },
      "isKyc(address,address)": {
        "params": {
          "account": "The account address associated with the token",
          "token": "The token address to check"
        },
        "returns": {
          "kycGranted": "True if `account` has kyc granted for `token`",
          "responseCode": "The response code for the status of the request. SUCCESS is 22."
        }
      },
      "pauseToken(address)": {
        "params": {
          "token": "The token address to be paused"
        },
        "returns": {
          "responseCode": "The response code for the status of the request. SUCCESS is 22."
        }
      },
      "revokeTokenKyc(address,address)": {
        "params": {
          "account": "The account address to revoke kyc",
          "token": "The token address"
        },
        "returns": {
          "responseCode": "The response code for the status of the request. SUCCESS is 22."
        }
      },
      "unpauseToken(address)": {
        "params": {
          "token": "The token address to be unpaused"
        },
        "returns": {
          "responseCode": "The response code for the status of the request. SUCCESS is 22."
        }
      },
      "updateTokenExpiryInfo(address,(uint32,address,uint32))": {
        "params": {
          "token": "The token address"
        },
        "returns": {
          "responseCode": "The response code for the status of the request. SUCCESS is 22."
        }
      },
      "updateTokenInfo(address,(string,string,address,string,bool,int64,bool,(uint256,(bool,address,bytes,bytes,address))[],(uint32,address,uint32)))": {
        "params": {
          "token": "The token address",
          "tokenInfo": "The hedera token info to update token with"
        },
        "returns": {
          "responseCode": "The response code for the status of the request. SUCCESS is 22."
        }
      }
    },
    "version": 1
  },
  "userdoc": {
    "kind": "user",
    "methods": {
      "getTokenExpiryInfo(address)": {
        "notice": "Operation to get token expiry info"
      },
      "grantTokenKyc(address,address)": {
        "notice": "Operation to grant kyc to token account"
      },
      "isKyc(address,address)": {
        "notice": "Query if token account has kyc granted"
      },
      "pauseToken(address)": {
        "notice": "Operation to pause token"
      },
      "revokeTokenKyc(address,address)": {
        "notice": "Operation to revoke kyc to token account"
      },
      "unpauseToken(address)": {
        "notice": "Operation to unpause token"
      },
      "updateTokenExpiryInfo(address,(uint32,address,uint32))": {
        "notice": "Operation to update token expiry info"
      },
      "updateTokenInfo(address,(string,string,address,string,bool,int64,bool,(uint256,(bool,address,bytes,bytes,address))[],(uint32,address,uint32)))": {
        "notice": "Operation to update token info"
      }
    },
    "version": 1
  }
}